{
  "contractName": "lol_auction",
  "abi": [
    {
      "anonymous": false,
      "inputs": [
        {
          "indexed": false,
          "internalType": "address",
          "name": "winner",
          "type": "address"
        },
        {
          "indexed": false,
          "internalType": "uint256",
          "name": "amount",
          "type": "uint256"
        },
        {
          "indexed": false,
          "internalType": "address",
          "name": "benecifiary",
          "type": "address"
        }
      ],
      "name": "AuctionEnded",
      "type": "event"
    },
    {
      "anonymous": false,
      "inputs": [
        {
          "indexed": false,
          "internalType": "address",
          "name": "bidder",
          "type": "address"
        },
        {
          "indexed": false,
          "internalType": "uint256",
          "name": "amount",
          "type": "uint256"
        }
      ],
      "name": "HighestBidIncrease",
      "type": "event"
    },
    {
      "anonymous": false,
      "inputs": [
        {
          "indexed": false,
          "internalType": "uint256",
          "name": "bider",
          "type": "uint256"
        }
      ],
      "name": "curr_amount_",
      "type": "event"
    },
    {
      "anonymous": false,
      "inputs": [
        {
          "indexed": false,
          "internalType": "address",
          "name": "bider",
          "type": "address"
        }
      ],
      "name": "curr_bider_",
      "type": "event"
    },
    {
      "anonymous": false,
      "inputs": [
        {
          "indexed": false,
          "internalType": "address",
          "name": "starter",
          "type": "address"
        },
        {
          "indexed": false,
          "internalType": "address",
          "name": "highestbidder",
          "type": "address"
        },
        {
          "indexed": false,
          "internalType": "uint256",
          "name": "bidsize",
          "type": "uint256"
        },
        {
          "indexed": false,
          "internalType": "uint256",
          "name": "biddingtime",
          "type": "uint256"
        },
        {
          "indexed": false,
          "internalType": "string",
          "name": "image",
          "type": "string"
        },
        {
          "indexed": false,
          "internalType": "string",
          "name": "token_URI",
          "type": "string"
        }
      ],
      "name": "curr_new_value_",
      "type": "event"
    },
    {
      "anonymous": false,
      "inputs": [
        {
          "indexed": false,
          "internalType": "address",
          "name": "curr_sender",
          "type": "address"
        },
        {
          "indexed": false,
          "internalType": "uint256",
          "name": "time",
          "type": "uint256"
        },
        {
          "indexed": false,
          "internalType": "uint256",
          "name": "size",
          "type": "uint256"
        }
      ],
      "name": "curr_time",
      "type": "event"
    },
    {
      "anonymous": false,
      "inputs": [
        {
          "indexed": false,
          "internalType": "address",
          "name": "starter",
          "type": "address"
        },
        {
          "indexed": false,
          "internalType": "address",
          "name": "highestbidder",
          "type": "address"
        },
        {
          "indexed": false,
          "internalType": "uint256",
          "name": "bidsize",
          "type": "uint256"
        }
      ],
      "name": "curr_value_",
      "type": "event"
    },
    {
      "inputs": [],
      "name": "highestBid",
      "outputs": [
        {
          "internalType": "uint256",
          "name": "",
          "type": "uint256"
        }
      ],
      "stateMutability": "view",
      "type": "function"
    },
    {
      "inputs": [],
      "name": "highestBider",
      "outputs": [
        {
          "internalType": "address",
          "name": "",
          "type": "address"
        }
      ],
      "stateMutability": "view",
      "type": "function"
    },
    {
      "inputs": [],
      "name": "tokenid",
      "outputs": [
        {
          "internalType": "uint256",
          "name": "",
          "type": "uint256"
        }
      ],
      "stateMutability": "view",
      "type": "function"
    },
    {
      "inputs": [
        {
          "internalType": "uint256",
          "name": "_biddingtime",
          "type": "uint256"
        },
        {
          "internalType": "address payable",
          "name": "_benecifiary",
          "type": "address"
        },
        {
          "internalType": "uint256",
          "name": "_tokenid",
          "type": "uint256"
        },
        {
          "internalType": "string",
          "name": "_image",
          "type": "string"
        },
        {
          "internalType": "string",
          "name": "token_URI",
          "type": "string"
        }
      ],
      "name": "on_auction",
      "outputs": [
        {
          "internalType": "uint256",
          "name": "",
          "type": "uint256"
        },
        {
          "internalType": "address",
          "name": "",
          "type": "address"
        },
        {
          "internalType": "uint256",
          "name": "",
          "type": "uint256"
        },
        {
          "internalType": "uint256",
          "name": "",
          "type": "uint256"
        }
      ],
      "stateMutability": "payable",
      "type": "function"
    },
    {
      "inputs": [],
      "name": "get_all_auctions_",
      "outputs": [
        {
          "components": [
            {
              "internalType": "uint256",
              "name": "tokenID",
              "type": "uint256"
            },
            {
              "internalType": "string",
              "name": "image",
              "type": "string"
            },
            {
              "internalType": "uint256",
              "name": "timestamp",
              "type": "uint256"
            },
            {
              "internalType": "uint256",
              "name": "curr_timer",
              "type": "uint256"
            },
            {
              "internalType": "address",
              "name": "Bider",
              "type": "address"
            },
            {
              "internalType": "address payable",
              "name": "benecifiary",
              "type": "address"
            },
            {
              "internalType": "uint256",
              "name": "Bidsize",
              "type": "uint256"
            },
            {
              "internalType": "bool",
              "name": "status",
              "type": "bool"
            },
            {
              "internalType": "string",
              "name": "token_uri",
              "type": "string"
            }
          ],
          "internalType": "struct lol_auction.auction[]",
          "name": "",
          "type": "tuple[]"
        }
      ],
      "stateMutability": "payable",
      "type": "function"
    },
    {
      "inputs": [
        {
          "internalType": "uint256",
          "name": "_id",
          "type": "uint256"
        }
      ],
      "name": "bid",
      "outputs": [],
      "stateMutability": "payable",
      "type": "function"
    },
    {
      "inputs": [
        {
          "internalType": "uint256",
          "name": "_id",
          "type": "uint256"
        }
      ],
      "name": "get_auctionTime",
      "outputs": [
        {
          "internalType": "uint256",
          "name": "",
          "type": "uint256"
        }
      ],
      "stateMutability": "nonpayable",
      "type": "function"
    },
    {
      "inputs": [],
      "name": "get_timer",
      "outputs": [
        {
          "internalType": "uint256",
          "name": "",
          "type": "uint256"
        }
      ],
      "stateMutability": "nonpayable",
      "type": "function"
    },
    {
      "inputs": [
        {
          "internalType": "uint256",
          "name": "_id",
          "type": "uint256"
        }
      ],
      "name": "get_time_bider",
      "outputs": [
        {
          "internalType": "uint256",
          "name": "",
          "type": "uint256"
        }
      ],
      "stateMutability": "nonpayable",
      "type": "function"
    },
    {
      "inputs": [
        {
          "internalType": "uint256",
          "name": "_id",
          "type": "uint256"
        }
      ],
      "name": "get_bider_",
      "outputs": [
        {
          "internalType": "address",
          "name": "",
          "type": "address"
        }
      ],
      "stateMutability": "nonpayable",
      "type": "function"
    },
    {
      "inputs": [
        {
          "internalType": "uint256",
          "name": "_id",
          "type": "uint256"
        }
      ],
      "name": "get_id_",
      "outputs": [
        {
          "internalType": "address",
          "name": "",
          "type": "address"
        }
      ],
      "stateMutability": "nonpayable",
      "type": "function"
    },
    {
      "inputs": [
        {
          "internalType": "address",
          "name": "_id",
          "type": "address"
        }
      ],
      "name": "get_pengingamount_",
      "outputs": [
        {
          "internalType": "uint256",
          "name": "",
          "type": "uint256"
        }
      ],
      "stateMutability": "nonpayable",
      "type": "function"
    },
    {
      "inputs": [
        {
          "internalType": "uint256",
          "name": "_id",
          "type": "uint256"
        },
        {
          "internalType": "address",
          "name": "_input",
          "type": "address"
        }
      ],
      "name": "withdraw",
      "outputs": [
        {
          "internalType": "bool",
          "name": "",
          "type": "bool"
        }
      ],
      "stateMutability": "nonpayable",
      "type": "function"
    },
    {
      "inputs": [
        {
          "internalType": "uint256",
          "name": "_id",
          "type": "uint256"
        }
      ],
      "name": "auctionEnd",
      "outputs": [],
      "stateMutability": "payable",
      "type": "function"
    }
  ],
  "bytecode": "0x6080604052600f805461ffff1916905534801561001b57600080fd5b5061158d8061002b6000396000f3fe6080604052600436106100f9576000357c01000000000000000000000000000000000000000000000000000000009004806328f60cbb1161009c5780636b57707e116100765780636b57707e1461024e5780637d6aab0a14610263578063cf9bf26714610278578063d57bde791461028d576100f9565b806328f60cbb1461020657806332246e9f14610226578063454a2ab31461023b576100f9565b806313e207a6116100d857806313e207a6146101815780631490b1d3146101965780631a6d8c8b146101c35780631eb23dc8146101e6576100f9565b8062f714ce146100fe578063092f3f67146101345780630ed0598514610161575b600080fd5b34801561010a57600080fd5b5061011e61011936600461104a565b6102a2565b60405161012b9190611393565b60405180910390f35b34801561014057600080fd5b5061015461014f366004611032565b610416565b60405161012b9190611443565b34801561016d57600080fd5b5061015461017c366004611032565b6104a9565b34801561018d57600080fd5b50610154610534565b3480156101a257600080fd5b506101b66101b1366004611032565b610538565b60405161012b9190611202565b6101d66101d1366004611079565b6105c6565b60405161012b949392919061144c565b3480156101f257600080fd5b5061015461020136600461100f565b61076c565b34801561021257600080fd5b506101b6610221366004611032565b610787565b610239610234366004611032565b610815565b005b610239610249366004611032565b61093e565b34801561025a57600080fd5b506101b6610b96565b34801561026f57600080fd5b50610154610ba5565b610280610bab565b60405161012b91906112a7565b34801561029957600080fd5b50610154610e8f565b6000805b60105481101561040a576000818152600560205260409020548414156103f857600160a060020a038316600090815260046020526040908190205490517ff0602ede5c639c75bd6b007dd23a962428939a33221a61cf11c10b7716cabbf690610310908390611443565b60405180910390a180156103f657600160a060020a03841660009081526004602052604080822091909155517f22d37f0dd321f3d04e6b841c14b9fa58af101a93b87e1cffe05a5394b7a2615290610369908690611202565b60405180910390a17ff0602ede5c639c75bd6b007dd23a962428939a33221a61cf11c10b7716cabbf6816040516103a09190611443565b60405180910390a1604051600160a060020a0385169082156108fc029083906000818181858888f193505050506103f657600160a060020a03841660009081526004602052604081209190915591506104109050565b505b80610402816114d2565b9150506102a6565b50600190505b92915050565b60008060005b6010548110156104a25760008181526005602052604090205484141561049057600081815260056020526040908190206003810154600482015460069092015492519094506000805160206115388339815191529261048792600160a060020a031691869190611286565b60405180910390a15b8061049a816114d2565b91505061041c565b5092915050565b60008060005b6010548110156104a25760008181526005602052604090205484141561052257600081815260056020526040908190206006810154600482015460029092015492519094506000805160206115388339815191529261051992600160a060020a0316918690611286565b60405180910390a15b8061052c816114d2565b9150506104af565b4290565b60008060005b6010548110156104a2576000818152600560205260409020548414156105b45760008181526005602052604090819020600481015460028201546006909201549251600160a060020a039091169450600080516020611538833981519152926105ab928692909190611286565b60405180910390a15b806105be816114d2565b91505061053e565b6000805473ffffffffffffffffffffffffffffffffffffffff1916600160a060020a0386161781556003849055808080806106018a4261147c565b60408051610120810182528a815260208082018b8152828401859052426060840152336080840152600160a060020a038e1660a0840152600060c08401819052600160e0850181905261010085018d905260105482526005845294902083518155905180519596509294909361067c93908501920190610e95565b5060408201516002820155606082015160038201556080820151600482018054600160a060020a0392831673ffffffffffffffffffffffffffffffffffffffff199182161790915560a084015160058401805491909316911617905560c0820151600682015560e082015160078201805491151560ff199092169190911790556101008201518051610718916008840191602090910190610e95565b5090505060016010600082825461072f919061147c565b92505081905550600160116000828254610749919061147c565b9091555050600054999a600160a060020a03909a16999798509695505050505050565b600160a060020a031660009081526004602052604090205490565b60008060005b6010548110156104a2576000818152600560205260409020548414156108035760008181526005602052604090819020600481015460028201546006909201549251600160a060020a039091169450600080516020611538833981519152926107fa928692909190611286565b60405180910390a15b8061080d816114d2565b91505061078d565b60005b60105481101561093a576000818152600560205260409020548214156109285760008181526005602052604090206002015442101561088c576040517f08c379a0000000000000000000000000000000000000000000000000000000008152600401610883906113d5565b60405180910390fd5b6000818152600560208181526040808420600481810154600160a060020a03908116875290845282862086905586865292849052928301546006909301549051929091169281156108fc029290818181858888f193505050501580156108f6573d6000803e3d6000fd5b5060008181526005602052604081206006810191909155600701805460ff19908116909155600f805490911660011790555b80610932816114d2565b915050610818565b5050565b60005b60105481101561093a57600081815260056020526040902054821415610b84576000818152600560205260409020600201544211156109ac576040517f08c379a00000000000000000000000000000000000000000000000000000000081526004016108839061139e565b60008181526005602052604090206006015434116109f6576040517f08c379a00000000000000000000000000000000000000000000000000000000081526004016108839061140c565b600081815260056020526040902060048101805473ffffffffffffffffffffffffffffffffffffffff19163317905534600690910181905515610b2957600081815260056020526040908190206004015490517f22d37f0dd321f3d04e6b841c14b9fa58af101a93b87e1cffe05a5394b7a2615291610a8091600160a060020a0390911690611202565b60405180910390a160008181526005602090815260408083206006810154600491820154600160a060020a0316855292528220805491929091610ac490849061147c565b90915550506000818152600560209081526040808320600490810154600160a060020a03168452909152908190205490517ff0602ede5c639c75bd6b007dd23a962428939a33221a61cf11c10b7716cabbf691610b2091611443565b60405180910390a15b60008181526005602052604090819020600481015460069091015491517fdfea07ab8527bd08519bfa633240757a7bb0a7f3c7adc98e30604ba73c70f42992610b7b92600160a060020a03169161126d565b60405180910390a15b80610b8e816114d2565b915050610941565b600154600160a060020a031681565b60035481565b6060600060115467ffffffffffffffff811115610bdb5760e060020a634e487b7102600052604160045260246000fd5b604051908082528060200260200182016040528015610c1457816020015b610c01610f19565b815260200190600190039081610bf95790505b50905060005b601154811015610e895760008181526005602081905260409182902060048101549181015460068201546002830154945192947f8b3fcce7fe829a267bc377da2d690cafe4af1232e15c0dffd64d9955e428304994610c9494600160a060020a039182169490911692919060018801906008890190611216565b60405180910390a160008281526005602052604090206007015460ff16151560011415610e7657806040518061012001604052908160008201548152602001600182018054610ce290611494565b80601f0160208091040260200160405190810160405280929190818152602001828054610d0e90611494565b8015610d5b5780601f10610d3057610100808354040283529160200191610d5b565b820191906000526020600020905b815481529060010190602001808311610d3e57829003601f168201915b505050918352505060028201546020820152600382015460408201526004820154600160a060020a0390811660608301526005830154166080820152600682015460a0820152600782015460ff16151560c082015260088201805460e090920191610dc590611494565b80601f0160208091040260200160405190810160405280929190818152602001828054610df190611494565b8015610e3e5780601f10610e1357610100808354040283529160200191610e3e565b820191906000526020600020905b815481529060010190602001808311610e2157829003601f168201915b505050505081525050838381518110610e6a5760e060020a634e487b7102600052603260045260246000fd5b60200260200101819052505b5080610e81816114d2565b915050610c1a565b50905090565b60025481565b828054610ea190611494565b90600052602060002090601f016020900481019282610ec35760008555610f09565b82601f10610edc57805160ff1916838001178555610f09565b82800160010185558215610f09579182015b82811115610f09578251825591602001919060010190610eee565b50610f15929150610f79565b5090565b604051806101200160405280600081526020016060815260200160008152602001600081526020016000600160a060020a031681526020016000600160a060020a0316815260200160008152602001600015158152602001606081525090565b5b80821115610f155760008155600101610f7a565b600082601f830112610f9e578081fd5b813567ffffffffffffffff80821115610fb957610fb9611506565b604051601f8301601f191681016020018281118282101715610fdd57610fdd611506565b604052828152848301602001861015610ff4578384fd5b82602086016020830137918201602001929092529392505050565b600060208284031215611020578081fd5b813561102b8161151f565b9392505050565b600060208284031215611043578081fd5b5035919050565b6000806040838503121561105c578081fd5b82359150602083013561106e8161151f565b809150509250929050565b600080600080600060a08688031215611090578081fd5b8535945060208601356110a28161151f565b935060408601359250606086013567ffffffffffffffff808211156110c5578283fd5b6110d189838a01610f8e565b935060808801359150808211156110e6578283fd5b506110f388828901610f8e565b9150509295509295909350565b600160a060020a03169052565b15159052565b60008151808452815b818110156111385760208185018101518683018201520161111c565b818111156111495782602083870101525b50601f01601f19169290920160200192915050565b80546000906002810460018083168061117857607f831692505b602080841082141561119b5760e060020a634e487b710286526022600452602486fd5b6111a58489611443565b8280156111b957600181146111ca576111f5565b60ff198716825282820197506111f5565b6111d389611470565b60005b878110156111ef578154848201529086019084016111d6565b83019850505b5050505050505092915050565b600160a060020a0391909116815260200190565b6000600160a060020a03808916835280881660208401525085604083015284606083015260c0608083015261124e60c083018561115e565b82810360a0840152611260818561115e565b9998505050505050505050565b600160a060020a03929092168252602082015260400190565b600160a060020a039390931683526020830191909152604082015260600190565b60208082528251828201819052600091906040908185019080840286018301878501865b8381101561138557603f1989840301855281516101208151855288820151818a8701526112fa82870182611113565b9150508782015188860152606080830151818701525060808083015161132282880182611100565b505060a08083015161133682880182611100565b505060c0828101519086015260e0808301516113548288018261110d565b505061010080830151925085820381870152506113718183611113565b9689019694505050908601906001016112cb565b509098975050505050505050565b901515815260200190565b6020808252601d908201527f5468652061756374696f6e2068617320616c726561647920656e646564000000604082015260600190565b6020808252601d908201527f5468652061756374696f6e20686173206e6f7420656e64656420796574000000604082015260600190565b6020808252601e908201527f546865726520697320616c726561647920612068696768657220426964210000604082015260600190565b90815260200190565b938452600160a060020a039290921660208401526040830152606082015260800190565b60009081526020902090565b6000821982111561148f5761148f6114ed565b500190565b6002810460018216806114a857607f821691505b602082108114156114cc5760e060020a634e487b7102600052602260045260246000fd5b50919050565b60006000198214156114e6576114e66114ed565b5060010190565b60e060020a634e487b7102600052601160045260246000fd5b60e060020a634e487b7102600052604160045260246000fd5b600160a060020a038116811461153457600080fd5b5056fe7f6b6ce17663b84b98563fbe52d9b0443c64eed9bd846eb822fc919ac65e0eb8a2646970667358221220dabb78897c55f16ef5d07c281da8e0654e9e78af5f347fb29c90ab1d499433b264736f6c63430008000033",
  "immutableReferences": {},
  "source": "pragma solidity ^0.8.0;\r\n\r\n\r\ncontract lol_auction{\r\n    address payable benecifiary;\r\n    \r\n\r\n    address public highestBider;\r\n    uint public highestBid;\r\n    uint public tokenid;\r\n    \r\n    mapping (address => uint) pendingReturns;\r\n    mapping (uint => auction) curr_auction_map;\r\n    \r\n    struct auction{\r\n        uint tokenID;\r\n        string image;\r\n        uint timestamp;\r\n        uint curr_timer;\r\n        \r\n        address Bider;\r\n        address payable benecifiary;\r\n        uint Bidsize; \r\n        bool status;\r\n        string token_uri;\r\n    } \r\n    \r\n    auction auc_on;\r\n    bool ended = false;\r\n    bool new_game= false;\r\n    uint _tokenCounter_;\r\n    uint newtokenCounter;\r\n    \r\n    event HighestBidIncrease(address bidder, uint amount);\r\n    \r\n    event AuctionEnded(address winner, uint amount, address benecifiary);\r\n    \r\n    event curr_time(address curr_sender, uint time, uint size);\r\n    \r\n    event curr_value_(address starter, address highestbidder, uint bidsize);\r\n\r\n    event curr_new_value_(address starter, address highestbidder, uint bidsize, uint biddingtime, string image, string token_URI);\r\n    \r\n    event curr_bider_(address bider);\r\n    \r\n    event curr_amount_(uint bider);\r\n     \r\n    function on_auction(uint _biddingtime, address payable _benecifiary, uint _tokenid, string memory _image, string memory token_URI) public payable returns (uint, address, uint, uint){\r\n        benecifiary = _benecifiary;\r\n        tokenid = _tokenid;\r\n        \r\n        \r\n        uint auctionendTime = block.timestamp +  _biddingtime;\r\n        \r\n        curr_auction_map[_tokenCounter_] = auction(_tokenid, _image, auctionendTime, block.timestamp, msg.sender, _benecifiary, 0, true, token_URI);\r\n        _tokenCounter_ += 1;\r\n\r\n        newtokenCounter += 1;\r\n\r\n        return (_biddingtime, benecifiary, _tokenid, auctionendTime );   \r\n    }\r\n\r\n      function get_all_auctions_() public payable returns (auction[] memory){\r\n      auction[] memory allauction = new auction[](newtokenCounter);\r\n      for (uint i = 0; i < newtokenCounter; i++) {\r\n          //uint curr_id = curr_auction_map[i].tokenID;\r\n          auction storage allauctions = curr_auction_map[i];\r\n          \r\n          emit curr_new_value_(curr_auction_map[i].Bider, curr_auction_map[i].benecifiary,\r\n          curr_auction_map[i].Bidsize, curr_auction_map[i].timestamp,\r\n          curr_auction_map[i].image, curr_auction_map[i].token_uri);\r\n\r\n          if(curr_auction_map[i].status == true){\r\n              allauction[i] = allauctions;\r\n          }\r\n      }\r\n      return allauction;\r\n  }\r\n    \r\n    function bid(uint _id)public payable {\r\n        for (uint i = 0; i < _tokenCounter_; i++) {\r\n         if(curr_auction_map[i].tokenID == _id){\r\n            \r\n            if(block.timestamp > curr_auction_map[i].timestamp){\r\n         \r\n            revert(\"The auction has already ended\");\r\n            }\r\n        \r\n                if(msg.value <= curr_auction_map[i].Bidsize){\r\n                    revert(\"There is already a higher Bid!\");\r\n                }\r\n                \r\n                curr_auction_map[i].Bider = msg.sender;\r\n                curr_auction_map[i].Bidsize = msg.value;\r\n                \r\n                if(curr_auction_map[i].Bidsize != 0 ){\r\n                    \r\n                    \r\n                    emit curr_bider_(curr_auction_map[i].Bider);\r\n                    pendingReturns[curr_auction_map[i].Bider] += curr_auction_map[i].Bidsize;\r\n                    \r\n                    emit curr_amount_(pendingReturns[curr_auction_map[i].Bider]);\r\n                }\r\n                \r\n               \r\n                emit HighestBidIncrease(curr_auction_map[i].Bider, curr_auction_map[i].Bidsize);\r\n                \r\n        }\r\n     \r\n        \r\n        }\r\n    }\r\n  \r\n    function get_auctionTime(uint _id) public virtual returns(uint){\r\n        \r\n        uint _time;\r\n        for (uint i = 0; i < _tokenCounter_; i++) {\r\n            if(curr_auction_map[i].tokenID == _id){\r\n                _time = curr_auction_map[i].curr_timer;\r\n                emit curr_time(curr_auction_map[i].Bider, curr_auction_map[i].curr_timer, curr_auction_map[i].Bidsize);\r\n            }\r\n        }\r\n        return _time;\r\n    }\r\n    \r\n     function get_timer() public virtual returns(uint){\r\n  \r\n        return block.timestamp;\r\n    }\r\n    \r\n    function get_time_bider(uint _id) public virtual returns(uint){\r\n       uint curr_highestBid;\r\n       \r\n        for (uint i = 0; i < _tokenCounter_; i++) {\r\n            if(curr_auction_map[i].tokenID == _id){\r\n                curr_highestBid = curr_auction_map[i].Bidsize;\r\n                emit curr_time(curr_auction_map[i].Bider, curr_auction_map[i].timestamp, curr_highestBid);\r\n            }\r\n        }\r\n        \r\n        return curr_highestBid;\r\n    }\r\n    \r\n    function get_bider_(uint _id) public virtual returns(address){\r\n       address curr_get_bider_;\r\n       \r\n        for (uint i = 0; i < _tokenCounter_; i++) {\r\n            if(curr_auction_map[i].tokenID == _id){\r\n                curr_get_bider_ = curr_auction_map[i].Bider;\r\n                emit curr_time(curr_auction_map[i].Bider, curr_auction_map[i].timestamp, curr_auction_map[i].Bidsize);\r\n            }\r\n        }\r\n        return curr_get_bider_;\r\n    }\r\n\r\n     function get_id_(uint _id) public virtual returns(address){\r\n       address curr_id;\r\n       \r\n        for (uint i = 0; i < _tokenCounter_; i++) {\r\n            if(curr_auction_map[i].tokenID == _id){\r\n                curr_id = curr_auction_map[i].Bider;\r\n                emit curr_time(curr_auction_map[i].Bider, curr_auction_map[i].timestamp, curr_auction_map[i].Bidsize);\r\n            }\r\n        }\r\n        return curr_id;\r\n    }\r\n    \r\n      function get_pengingamount_(address _id) public virtual returns(uint){\r\n       \r\n        return pendingReturns[_id];\r\n    }\r\n    \r\n\r\n    \r\n    function withdraw(uint _id, address _input) public virtual returns(bool){\r\n        for (uint i = 0; i < _tokenCounter_; i++) {\r\n            \r\n         if(curr_auction_map[i].tokenID == _id){\r\n                uint amount = pendingReturns[_input];\r\n                \r\n                emit curr_amount_(pendingReturns[_input]);\r\n                \r\n                if(amount > 0){\r\n                    pendingReturns[_input] = 0;\r\n                    \r\n                    emit curr_bider_(_input);\r\n    \r\n                    emit curr_amount_(amount);\r\n                    \r\n                    if(!payable(_input).send(amount)){\r\n                        pendingReturns[_input] = amount;\r\n                        return false;\r\n                }\r\n            }\r\n        }\r\n    }\r\n    \r\n       \r\n        return true;\r\n}\r\n    \r\n     //0x5B38Da6a701c568545dCfcB03FcB875f56beddC4\r\n     //0xAb8483F64d9C6d1EcF9b849Ae677dD3315835cb2\r\n     \r\n     //0x4B20993Bc481177ec7E8f571ceCaE8A9e22C02db\r\n     //0x78731D3Ca6b7E34aC0F824c42a7cC18A495cabaB\r\n    \r\n    function auctionEnd(uint _id) public payable virtual{\r\n        \r\n        for (uint i = 0; i < _tokenCounter_; i++) {\r\n        \r\n        if(curr_auction_map[i].tokenID == _id){\r\n            if(block.timestamp < curr_auction_map[i].timestamp){\r\n                revert(\"The auction has not ended yet\");\r\n            }\r\n                pendingReturns[curr_auction_map[i].Bider] = 0;\r\n                \r\n                curr_auction_map[i].benecifiary.transfer(curr_auction_map[i].Bidsize);\r\n                \r\n                curr_auction_map[i].Bidsize = 0;\r\n                \r\n                curr_auction_map[i].status = false;\r\n                \r\n                ended = true;\r\n        \r\n           }\r\n        }\r\n        \r\n    }\r\n    \r\n    \r\n}\r\n",
  "sourcePath": "C:\\Users\\robel\\react-apps\\nft-platform\\contracts\\Auction.sol",
  "compiler": {
    "name": "solc",
    "version": "0.8.0+commit.c7dfd78e.Emscripten.clang"
  },
  "schemaVersion": "3.4.0",
  "updatedAt": "2021-06-18T14:24:41.161Z",
  "devdoc": {
    "kind": "dev",
    "methods": {},
    "version": 1
  },
  "userdoc": {
    "kind": "user",
    "methods": {},
    "version": 1
  }
}