{
  "contractName": "My_auction",
  "abi": [
    {
      "anonymous": false,
      "inputs": [
        {
          "indexed": false,
          "internalType": "address",
          "name": "winner",
          "type": "address"
        },
        {
          "indexed": false,
          "internalType": "uint256",
          "name": "amount",
          "type": "uint256"
        },
        {
          "indexed": false,
          "internalType": "address",
          "name": "benecifiary",
          "type": "address"
        }
      ],
      "name": "AuctionEnded",
      "type": "event"
    },
    {
      "anonymous": false,
      "inputs": [
        {
          "indexed": false,
          "internalType": "address",
          "name": "bidder",
          "type": "address"
        },
        {
          "indexed": false,
          "internalType": "uint256",
          "name": "amount",
          "type": "uint256"
        }
      ],
      "name": "HighestBidIncrease",
      "type": "event"
    },
    {
      "anonymous": false,
      "inputs": [
        {
          "indexed": false,
          "internalType": "uint256",
          "name": "bider",
          "type": "uint256"
        }
      ],
      "name": "curr_amount_",
      "type": "event"
    },
    {
      "anonymous": false,
      "inputs": [
        {
          "indexed": false,
          "internalType": "address",
          "name": "bider",
          "type": "address"
        }
      ],
      "name": "curr_bider_",
      "type": "event"
    },
    {
      "anonymous": false,
      "inputs": [
        {
          "indexed": false,
          "internalType": "address",
          "name": "curr_sender",
          "type": "address"
        },
        {
          "indexed": false,
          "internalType": "uint256",
          "name": "time",
          "type": "uint256"
        },
        {
          "indexed": false,
          "internalType": "uint256",
          "name": "size",
          "type": "uint256"
        }
      ],
      "name": "curr_time",
      "type": "event"
    },
    {
      "anonymous": false,
      "inputs": [
        {
          "indexed": false,
          "internalType": "address",
          "name": "starter",
          "type": "address"
        },
        {
          "indexed": false,
          "internalType": "address",
          "name": "highestbidder",
          "type": "address"
        },
        {
          "indexed": false,
          "internalType": "uint256",
          "name": "bidsize",
          "type": "uint256"
        }
      ],
      "name": "curr_value_",
      "type": "event"
    },
    {
      "inputs": [],
      "name": "highestBid",
      "outputs": [
        {
          "internalType": "uint256",
          "name": "",
          "type": "uint256"
        }
      ],
      "stateMutability": "view",
      "type": "function",
      "constant": true
    },
    {
      "inputs": [],
      "name": "highestBider",
      "outputs": [
        {
          "internalType": "address",
          "name": "",
          "type": "address"
        }
      ],
      "stateMutability": "view",
      "type": "function",
      "constant": true
    },
    {
      "inputs": [],
      "name": "tokenid",
      "outputs": [
        {
          "internalType": "uint256",
          "name": "",
          "type": "uint256"
        }
      ],
      "stateMutability": "view",
      "type": "function",
      "constant": true
    },
    {
      "inputs": [
        {
          "internalType": "uint256",
          "name": "_biddingtime",
          "type": "uint256"
        },
        {
          "internalType": "address payable",
          "name": "_benecifiary",
          "type": "address"
        },
        {
          "internalType": "uint256",
          "name": "_tokenid",
          "type": "uint256"
        },
        {
          "internalType": "string",
          "name": "_token_URI",
          "type": "string"
        },
        {
          "internalType": "string",
          "name": "_image",
          "type": "string"
        }
      ],
      "name": "on_auction",
      "outputs": [],
      "stateMutability": "payable",
      "type": "function",
      "payable": true
    },
    {
      "inputs": [],
      "name": "get_all_auctions_",
      "outputs": [
        {
          "components": [
            {
              "internalType": "uint256",
              "name": "tokenID",
              "type": "uint256"
            },
            {
              "internalType": "string",
              "name": "token_URI",
              "type": "string"
            },
            {
              "internalType": "string",
              "name": "image",
              "type": "string"
            },
            {
              "internalType": "uint256",
              "name": "timestamp",
              "type": "uint256"
            },
            {
              "internalType": "uint256",
              "name": "curr_time",
              "type": "uint256"
            },
            {
              "internalType": "address",
              "name": "Bider",
              "type": "address"
            },
            {
              "internalType": "address payable",
              "name": "benecifiary",
              "type": "address"
            },
            {
              "internalType": "uint256",
              "name": "Bidsize",
              "type": "uint256"
            },
            {
              "internalType": "bool",
              "name": "status",
              "type": "bool"
            }
          ],
          "internalType": "struct My_auction.auction[]",
          "name": "",
          "type": "tuple[]"
        }
      ],
      "stateMutability": "view",
      "type": "function",
      "constant": true
    },
    {
      "inputs": [
        {
          "internalType": "uint256",
          "name": "_id",
          "type": "uint256"
        }
      ],
      "name": "bid",
      "outputs": [],
      "stateMutability": "payable",
      "type": "function",
      "payable": true
    },
    {
      "inputs": [
        {
          "internalType": "uint256",
          "name": "_id",
          "type": "uint256"
        }
      ],
      "name": "get_auctionTime",
      "outputs": [
        {
          "internalType": "uint256",
          "name": "",
          "type": "uint256"
        }
      ],
      "stateMutability": "nonpayable",
      "type": "function"
    },
    {
      "inputs": [
        {
          "internalType": "uint256",
          "name": "_id",
          "type": "uint256"
        }
      ],
      "name": "get_time_bider",
      "outputs": [
        {
          "internalType": "uint256",
          "name": "",
          "type": "uint256"
        }
      ],
      "stateMutability": "nonpayable",
      "type": "function"
    },
    {
      "inputs": [
        {
          "internalType": "uint256",
          "name": "_id",
          "type": "uint256"
        }
      ],
      "name": "get_bider_",
      "outputs": [
        {
          "internalType": "address",
          "name": "",
          "type": "address"
        }
      ],
      "stateMutability": "nonpayable",
      "type": "function"
    },
    {
      "inputs": [
        {
          "internalType": "uint256",
          "name": "_id",
          "type": "uint256"
        }
      ],
      "name": "get_id_",
      "outputs": [
        {
          "internalType": "address",
          "name": "",
          "type": "address"
        }
      ],
      "stateMutability": "nonpayable",
      "type": "function"
    },
    {
      "inputs": [
        {
          "internalType": "address",
          "name": "_id",
          "type": "address"
        }
      ],
      "name": "get_pengingamount_",
      "outputs": [
        {
          "internalType": "uint256",
          "name": "",
          "type": "uint256"
        }
      ],
      "stateMutability": "nonpayable",
      "type": "function"
    },
    {
      "inputs": [
        {
          "internalType": "uint256",
          "name": "_id",
          "type": "uint256"
        },
        {
          "internalType": "address",
          "name": "_input",
          "type": "address"
        }
      ],
      "name": "withdraw",
      "outputs": [
        {
          "internalType": "bool",
          "name": "",
          "type": "bool"
        }
      ],
      "stateMutability": "nonpayable",
      "type": "function"
    },
    {
      "inputs": [
        {
          "internalType": "uint256",
          "name": "_id",
          "type": "uint256"
        }
      ],
      "name": "auctionEnd",
      "outputs": [],
      "stateMutability": "payable",
      "type": "function",
      "payable": true
    }
  ],
  "bytecode": "0x6080604052600f805461ffff1916905534801561001b57600080fd5b506113858061002b6000396000f3fe6080604052600436106100de576000357c01000000000000000000000000000000000000000000000000000000009004806328f60cbb1161009c5780636b57707e116100765780636b57707e1461020e5780637d6aab0a14610223578063cf9bf26714610238578063d57bde791461025a576100de565b806328f60cbb146101c857806332246e9f146101e8578063454a2ab3146101fb576100de565b8062f714ce146100e3578063092f3f67146101195780630ed05985146101465780631490b1d3146101665780631a6d8c8b146101935780631eb23dc8146101a8575b600080fd5b3480156100ef57600080fd5b506101036100fe366004610f6d565b61026f565b60405161011091906111bb565b60405180910390f35b34801561012557600080fd5b50610139610134366004610f55565b6103e3565b604051610110919061126b565b34801561015257600080fd5b50610139610161366004610f55565b61047c565b34801561017257600080fd5b50610186610181366004610f55565b61050a565b6040516101109190611081565b6101a66101a1366004610f9c565b610599565b005b3480156101b457600080fd5b506101396101c3366004610f32565b610703565b3480156101d457600080fd5b506101866101e3366004610f55565b61071e565b6101a66101f6366004610f55565b6107ad565b6101a6610209366004610f55565b6108d7565b34801561021a57600080fd5b50610186610b31565b34801561022f57600080fd5b50610139610b40565b34801561024457600080fd5b5061024d610b46565b60405161011091906110cf565b34801561026657600080fd5b50610139610db2565b6000805b6010548110156103d7576000818152600560205260409020548414156103c557600160a060020a038316600090815260046020526040908190205490517ff0602ede5c639c75bd6b007dd23a962428939a33221a61cf11c10b7716cabbf6906102dd90839061126b565b60405180910390a180156103c357600160a060020a03841660009081526004602052604080822091909155517f22d37f0dd321f3d04e6b841c14b9fa58af101a93b87e1cffe05a5394b7a2615290610336908690611081565b60405180910390a17ff0602ede5c639c75bd6b007dd23a962428939a33221a61cf11c10b7716cabbf68160405161036d919061126b565b60405180910390a1604051600160a060020a0385169082156108fc029083906000818181858888f193505050506103c357600160a060020a03841660009081526004602052604081209190915591506103dd9050565b505b806103cf816112ca565b915050610273565b50600190505b92915050565b60008060005b6010548110156104755760008181526005602052604090205484141561046357600081815260056020819052604091829020600481015491810154600382015460079092015493519295506000805160206113308339815191529361045a93600160a060020a0390921692916110ae565b60405180910390a15b8061046d816112ca565b9150506103e9565b5092915050565b60008060005b601054811015610475576000818152600560205260409020548414156104f8576000818152600560208190526040918290206007810154918101546003909101549251919450600080516020611330833981519152926104ef92600160a060020a039092169186906110ae565b60405180910390a15b80610502816112ca565b915050610482565b60008060005b60105481101561047557600081815260056020526040902054841415610587576000818152600560208190526040918290209081015460038201546007909201549251600160a060020a0390911694506000805160206113308339815191529261057e9286929091906110ae565b60405180910390a15b80610591816112ca565b915050610510565b6000805473ffffffffffffffffffffffffffffffffffffffff1916600160a060020a03861617815560038490556105d08642611274565b60408051610120810182528681526020808201878152828401879052606083018590524260808401523360a0840152600160a060020a038a1660c0840152600060e084018190526001610100850181905260105482526005845294902083518155905180519596509294909361064b93908501920190610db8565b5060408201518051610667916002840191602090910190610db8565b50606082015160038201556080820151600482015560a0820151600582018054600160a060020a0392831673ffffffffffffffffffffffffffffffffffffffff199182161790915560c084015160068401805491909316911617905560e08201516007820155610100909101516008909101805491151560ff199092169190911790556010546106f8906001611274565b601055505050505050565b600160a060020a031660009081526004602052604090205490565b60008060005b6010548110156104755760008181526005602052604090205484141561079b576000818152600560208190526040918290209081015460038201546007909201549251600160a060020a039091169450600080516020611330833981519152926107929286929091906110ae565b60405180910390a15b806107a5816112ca565b915050610724565b60005b6010548110156108d3576000818152600560205260409020548214156108c157600081815260056020526040902060030154421015610824576040517f08c379a000000000000000000000000000000000000000000000000000000000815260040161081b906111fd565b60405180910390fd5b600081815260056020818152604080842080840154600160a060020a039081168652600484528286208690558686529390925260068201546007909201549051919092169282156108fc02929190818181858888f1935050505015801561088f573d6000803e3d6000fd5b5060008181526005602052604081206007810191909155600801805460ff19908116909155600f805490911660011790555b806108cb816112ca565b9150506107b0565b5050565b60005b6010548110156108d357600081815260056020526040902054821415610b1f57600081815260056020526040902060030154421115610945576040517f08c379a000000000000000000000000000000000000000000000000000000000815260040161081b906111c6565b600081815260056020526040902060070154341161098f576040517f08c379a000000000000000000000000000000000000000000000000000000000815260040161081b90611234565b6000818152600560208190526040909120908101805473ffffffffffffffffffffffffffffffffffffffff19163317905534600790910181905515610ac357600081815260056020819052604091829020015490517f22d37f0dd321f3d04e6b841c14b9fa58af101a93b87e1cffe05a5394b7a2615291610a1b91600160a060020a0390911690611081565b60405180910390a160008181526005602081815260408084206007810154930154600160a060020a0316845260049091528220805491929091610a5f908490611274565b9091555050600081815260056020818152604080842090920154600160a060020a0316835260049052908190205490517ff0602ede5c639c75bd6b007dd23a962428939a33221a61cf11c10b7716cabbf691610aba9161126b565b60405180910390a15b6000818152600560208190526040918290209081015460079091015491517fdfea07ab8527bd08519bfa633240757a7bb0a7f3c7adc98e30604ba73c70f42992610b1692600160a060020a031691611095565b60405180910390a15b80610b29816112ca565b9150506108da565b600154600160a060020a031681565b60035481565b6060600060105467ffffffffffffffff811115610b765760e060020a634e487b7102600052604160045260246000fd5b604051908082528060200260200182016040528015610baf57816020015b610b9c610e3c565b815260200190600190039081610b945790505b50905060005b601054811015610dac576000818152600560205260409020600881015460ff16151560011415610d9957806040518061012001604052908160008201548152602001600182018054610c069061128c565b80601f0160208091040260200160405190810160405280929190818152602001828054610c329061128c565b8015610c7f5780601f10610c5457610100808354040283529160200191610c7f565b820191906000526020600020905b815481529060010190602001808311610c6257829003601f168201915b50505050508152602001600282018054610c989061128c565b80601f0160208091040260200160405190810160405280929190818152602001828054610cc49061128c565b8015610d115780601f10610ce657610100808354040283529160200191610d11565b820191906000526020600020905b815481529060010190602001808311610cf457829003601f168201915b505050918352505060038201546020820152600482015460408201526005820154600160a060020a0390811660608301526006830154166080820152600782015460a082015260089091015460ff16151560c0909101528351849084908110610d8d5760e060020a634e487b7102600052603260045260246000fd5b60200260200101819052505b5080610da4816112ca565b915050610bb5565b50905090565b60025481565b828054610dc49061128c565b90600052602060002090601f016020900481019282610de65760008555610e2c565b82601f10610dff57805160ff1916838001178555610e2c565b82800160010185558215610e2c579182015b82811115610e2c578251825591602001919060010190610e11565b50610e38929150610e9c565b5090565b60405180610120016040528060008152602001606081526020016060815260200160008152602001600081526020016000600160a060020a031681526020016000600160a060020a03168152602001600081526020016000151581525090565b5b80821115610e385760008155600101610e9d565b600082601f830112610ec1578081fd5b813567ffffffffffffffff80821115610edc57610edc6112fe565b604051601f8301601f191681016020018281118282101715610f0057610f006112fe565b604052828152848301602001861015610f17578384fd5b82602086016020830137918201602001929092529392505050565b600060208284031215610f43578081fd5b8135610f4e81611317565b9392505050565b600060208284031215610f66578081fd5b5035919050565b60008060408385031215610f7f578081fd5b823591506020830135610f9181611317565b809150509250929050565b600080600080600060a08688031215610fb3578081fd5b853594506020860135610fc581611317565b935060408601359250606086013567ffffffffffffffff80821115610fe8578283fd5b610ff489838a01610eb1565b93506080880135915080821115611009578283fd5b5061101688828901610eb1565b9150509295509295909350565b600160a060020a03169052565b15159052565b60008151808452815b8181101561105b5760208185018101518683018201520161103f565b8181111561106c5782602083870101525b50601f01601f19169290920160200192915050565b600160a060020a0391909116815260200190565b600160a060020a03929092168252602082015260400190565b600160a060020a039390931683526020830191909152604082015260600190565b60208082528251828201819052600091906040908185019080840286018301878501865b838110156111ad57603f1989840301855281516101208151855288820151818a87015261112282870182611036565b915050878201518582038987015261113a8282611036565b9150506060808301518187015250608080830151818701525060a08083015161116582880182611023565b505060c08083015161117982880182611023565b505060e08281015190860152610100918201519161119981870184611030565b5095880195935050908601906001016110f3565b509098975050505050505050565b901515815260200190565b6020808252601d908201527f5468652061756374696f6e2068617320616c726561647920656e646564000000604082015260600190565b6020808252601d908201527f5468652061756374696f6e20686173206e6f7420656e64656420796574000000604082015260600190565b6020808252601e908201527f546865726520697320616c726561647920612068696768657220426964210000604082015260600190565b90815260200190565b60008219821115611287576112876112e5565b500190565b6002810460018216806112a057607f821691505b602082108114156112c45760e060020a634e487b7102600052602260045260246000fd5b50919050565b60006000198214156112de576112de6112e5565b5060010190565b60e060020a634e487b7102600052601160045260246000fd5b60e060020a634e487b7102600052604160045260246000fd5b600160a060020a038116811461132c57600080fd5b5056fe7f6b6ce17663b84b98563fbe52d9b0443c64eed9bd846eb822fc919ac65e0eb8a2646970667358221220ca1727a7450405669b4dde1a4a6442809e21d3ed7bd22a46c4361c97fb70424664736f6c63430008000033",
  "immutableReferences": {},
  "source": "pragma solidity ^0.8.0;\r\n\r\ncontract My_auction{\r\n    address payable benecifiary;\r\n    \r\n\r\n    address public highestBider;\r\n    uint public highestBid;\r\n    uint public tokenid;\r\n    \r\n    mapping (address => uint) pendingReturns;\r\n    mapping (uint => auction) curr_auction_map;\r\n    \r\n    struct auction{\r\n        uint tokenID;\r\n        string token_URI;\r\n        string image;\r\n        uint timestamp;\r\n        uint curr_time;\r\n        address Bider;\r\n        address payable benecifiary;\r\n        uint Bidsize; \r\n        bool status;\r\n    } \r\n    \r\n    auction auc_on;\r\n    bool ended = false;\r\n    bool new_game= false;\r\n    uint _tokenCounter_;\r\n    \r\n    event HighestBidIncrease(address bidder, uint amount);\r\n    \r\n    event AuctionEnded(address winner, uint amount, address benecifiary);\r\n    \r\n    event curr_time(address curr_sender, uint time, uint size);\r\n    \r\n    event curr_value_(address starter, address highestbidder, uint bidsize);\r\n    \r\n    event curr_bider_(address bider);\r\n    \r\n    event curr_amount_(uint bider);\r\n     \r\n    function on_auction(uint _biddingtime, address payable _benecifiary, uint _tokenid, string memory _token_URI, string memory _image) public payable{\r\n        benecifiary = _benecifiary;\r\n        tokenid = _tokenid;\r\n\r\n        \r\n\r\n        uint auctionendTime = block.timestamp +  _biddingtime;\r\n        \r\n        curr_auction_map[_tokenCounter_] = auction(_tokenid, _token_URI, _image, auctionendTime, block.timestamp,  msg.sender, _benecifiary, 0, true);\r\n\r\n         _tokenCounter_ = _tokenCounter_ + 1;\r\n    }\r\n\r\n\r\n    function get_all_auctions_() public view returns (auction[] memory){\r\n      auction[] memory allauction = new auction[](_tokenCounter_);\r\n      for (uint i = 0; i < _tokenCounter_; i++) {\r\n          //uint curr_id = curr_auction_map[i].tokenID;\r\n          auction storage allauctions = curr_auction_map[i];\r\n          \r\n          if(curr_auction_map[i].status == true){\r\n              allauction[i] = allauctions;\r\n          }\r\n\r\n      }\r\n      return allauction;\r\n  }\r\n    function bid(uint _id)public payable {\r\n        for (uint i = 0; i < _tokenCounter_; i++) {\r\n         if(curr_auction_map[i].tokenID == _id){\r\n            \r\n            if(block.timestamp > curr_auction_map[i].timestamp){\r\n         \r\n            revert(\"The auction has already ended\");\r\n            }\r\n        \r\n                if(msg.value <= curr_auction_map[i].Bidsize){\r\n                    revert(\"There is already a higher Bid!\");\r\n                }\r\n                \r\n                curr_auction_map[i].Bider = msg.sender;\r\n                curr_auction_map[i].Bidsize = msg.value;\r\n                //curr_auction_map[i].status = true;\r\n                \r\n                if(curr_auction_map[i].Bidsize != 0 ){\r\n                    \r\n                    \r\n                    emit curr_bider_(curr_auction_map[i].Bider);\r\n                    pendingReturns[curr_auction_map[i].Bider] += curr_auction_map[i].Bidsize;\r\n                    \r\n                    emit curr_amount_(pendingReturns[curr_auction_map[i].Bider]);\r\n                }\r\n                \r\n               \r\n                emit HighestBidIncrease(curr_auction_map[i].Bider, curr_auction_map[i].Bidsize);\r\n                \r\n        }\r\n     \r\n        \r\n        }\r\n    }\r\n    \r\n    function get_auctionTime(uint _id) public virtual returns(uint){\r\n        \r\n        uint _time;\r\n        for (uint i = 0; i < _tokenCounter_; i++) {\r\n            if(curr_auction_map[i].tokenID == _id){\r\n                _time = curr_auction_map[i].curr_time;\r\n                emit curr_time(curr_auction_map[i].Bider, curr_auction_map[i].timestamp, curr_auction_map[i].Bidsize);\r\n            }\r\n        }\r\n        return _time;\r\n    }\r\n    \r\n    function get_time_bider(uint _id) public virtual returns(uint){\r\n       uint curr_highestBid;\r\n       \r\n        for (uint i = 0; i < _tokenCounter_; i++) {\r\n            if(curr_auction_map[i].tokenID == _id){\r\n                curr_highestBid = curr_auction_map[i].Bidsize;\r\n                emit curr_time(curr_auction_map[i].Bider, curr_auction_map[i].timestamp, curr_highestBid);\r\n            }\r\n        }\r\n        \r\n        return curr_highestBid;\r\n    }\r\n    \r\n    function get_bider_(uint _id) public virtual returns(address){\r\n       address curr_get_bider_;\r\n       \r\n        for (uint i = 0; i < _tokenCounter_; i++) {\r\n            if(curr_auction_map[i].tokenID == _id){\r\n                curr_get_bider_ = curr_auction_map[i].Bider;\r\n                emit curr_time(curr_auction_map[i].Bider, curr_auction_map[i].timestamp, curr_auction_map[i].Bidsize);\r\n            }\r\n        }\r\n        return curr_get_bider_;\r\n    }\r\n\r\n     function get_id_(uint _id) public virtual returns(address){\r\n       address curr_id;\r\n       \r\n        for (uint i = 0; i < _tokenCounter_; i++) {\r\n            if(curr_auction_map[i].tokenID == _id){\r\n                curr_id = curr_auction_map[i].Bider;\r\n                emit curr_time(curr_auction_map[i].Bider, curr_auction_map[i].timestamp, curr_auction_map[i].Bidsize);\r\n            }\r\n        }\r\n        return curr_id;\r\n    }\r\n    \r\n      function get_pengingamount_(address _id) public virtual returns(uint){\r\n       \r\n        return pendingReturns[_id];\r\n    }\r\n    \r\n\r\n    \r\n    function withdraw(uint _id, address _input) public virtual returns(bool){\r\n        for (uint i = 0; i < _tokenCounter_; i++) {\r\n            \r\n         if(curr_auction_map[i].tokenID == _id){\r\n                uint amount = pendingReturns[_input];\r\n                \r\n                emit curr_amount_(pendingReturns[_input]);\r\n                \r\n                if(amount > 0){\r\n                    pendingReturns[_input] = 0;\r\n                    \r\n                    emit curr_bider_(_input);\r\n    \r\n                    emit curr_amount_(amount);\r\n                    \r\n                    if(!payable(_input).send(amount)){\r\n                        pendingReturns[_input] = amount;\r\n                        return false;\r\n                }\r\n            }\r\n        }\r\n    }\r\n        return true;\r\n}\r\n    \r\n     //0x5B38Da6a701c568545dCfcB03FcB875f56beddC4\r\n     //0xAb8483F64d9C6d1EcF9b849Ae677dD3315835cb2\r\n     \r\n     //0x4B20993Bc481177ec7E8f571ceCaE8A9e22C02db\r\n     //0x78731D3Ca6b7E34aC0F824c42a7cC18A495cabaB\r\n    \r\n    function auctionEnd(uint _id) public payable virtual{\r\n        \r\n        for (uint i = 0; i < _tokenCounter_; i++) {\r\n        \r\n        if(curr_auction_map[i].tokenID == _id){\r\n            if(block.timestamp < curr_auction_map[i].timestamp){\r\n                revert(\"The auction has not ended yet\");\r\n            }\r\n                pendingReturns[curr_auction_map[i].Bider] = 0;\r\n                \r\n                curr_auction_map[i].benecifiary.transfer(curr_auction_map[i].Bidsize);\r\n                \r\n                curr_auction_map[i].Bidsize = 0;\r\n                \r\n                curr_auction_map[i].status = false;\r\n                \r\n                ended = true;\r\n        \r\n           }\r\n        }\r\n        \r\n    }   \r\n}",
  "sourcePath": "C:/Users/robel/react-apps/nft-platform/contracts/Auction.sol",
  "compiler": {
    "name": "solc",
    "version": "0.8.0+commit.c7dfd78e.Emscripten.clang"
  },
  "schemaVersion": "3.4.0",
  "updatedAt": "2021-08-26T22:24:28.835Z",
  "networkType": "ethereum",
  "devdoc": {
    "kind": "dev",
    "methods": {},
    "version": 1
  },
  "userdoc": {
    "kind": "user",
    "methods": {},
    "version": 1
  }
}