{
  "contractName": "NftExample",
  "abi": [
    {
      "inputs": [],
      "stateMutability": "nonpayable",
      "type": "constructor"
    },
    {
      "anonymous": false,
      "inputs": [
        {
          "indexed": true,
          "internalType": "address",
          "name": "owner",
          "type": "address"
        },
        {
          "indexed": true,
          "internalType": "address",
          "name": "approved",
          "type": "address"
        },
        {
          "indexed": true,
          "internalType": "uint256",
          "name": "tokenId",
          "type": "uint256"
        }
      ],
      "name": "Approval",
      "type": "event"
    },
    {
      "anonymous": false,
      "inputs": [
        {
          "indexed": true,
          "internalType": "address",
          "name": "owner",
          "type": "address"
        },
        {
          "indexed": true,
          "internalType": "address",
          "name": "operator",
          "type": "address"
        },
        {
          "indexed": false,
          "internalType": "bool",
          "name": "approved",
          "type": "bool"
        }
      ],
      "name": "ApprovalForAll",
      "type": "event"
    },
    {
      "anonymous": false,
      "inputs": [
        {
          "indexed": false,
          "internalType": "address",
          "name": "winner",
          "type": "address"
        },
        {
          "indexed": false,
          "internalType": "uint256",
          "name": "amount",
          "type": "uint256"
        },
        {
          "indexed": false,
          "internalType": "address",
          "name": "benecifiary",
          "type": "address"
        }
      ],
      "name": "AuctionEnded",
      "type": "event"
    },
    {
      "anonymous": false,
      "inputs": [
        {
          "indexed": false,
          "internalType": "address",
          "name": "bidder",
          "type": "address"
        },
        {
          "indexed": false,
          "internalType": "uint256",
          "name": "amount",
          "type": "uint256"
        }
      ],
      "name": "HighestBidIncrease",
      "type": "event"
    },
    {
      "anonymous": false,
      "inputs": [
        {
          "indexed": true,
          "internalType": "address",
          "name": "from",
          "type": "address"
        },
        {
          "indexed": true,
          "internalType": "address",
          "name": "to",
          "type": "address"
        },
        {
          "indexed": true,
          "internalType": "uint256",
          "name": "tokenId",
          "type": "uint256"
        }
      ],
      "name": "Transfer",
      "type": "event"
    },
    {
      "anonymous": false,
      "inputs": [
        {
          "indexed": false,
          "internalType": "string[]",
          "name": "",
          "type": "string[]"
        }
      ],
      "name": "all_nfts",
      "type": "event"
    },
    {
      "anonymous": false,
      "inputs": [
        {
          "indexed": false,
          "internalType": "uint256",
          "name": "bider",
          "type": "uint256"
        }
      ],
      "name": "curr_amount_",
      "type": "event"
    },
    {
      "anonymous": false,
      "inputs": [
        {
          "indexed": false,
          "internalType": "address",
          "name": "bider",
          "type": "address"
        }
      ],
      "name": "curr_bider_",
      "type": "event"
    },
    {
      "anonymous": false,
      "inputs": [
        {
          "indexed": false,
          "internalType": "address",
          "name": "starter",
          "type": "address"
        },
        {
          "indexed": false,
          "internalType": "address",
          "name": "highestbidder",
          "type": "address"
        },
        {
          "indexed": false,
          "internalType": "uint256",
          "name": "bidsize",
          "type": "uint256"
        },
        {
          "indexed": false,
          "internalType": "uint256",
          "name": "biddingtime",
          "type": "uint256"
        },
        {
          "indexed": false,
          "internalType": "string",
          "name": "image",
          "type": "string"
        },
        {
          "indexed": false,
          "internalType": "string",
          "name": "token_URI",
          "type": "string"
        }
      ],
      "name": "curr_new_value_",
      "type": "event"
    },
    {
      "anonymous": false,
      "inputs": [
        {
          "indexed": false,
          "internalType": "address",
          "name": "curr_sender",
          "type": "address"
        },
        {
          "indexed": false,
          "internalType": "uint256",
          "name": "time",
          "type": "uint256"
        },
        {
          "indexed": false,
          "internalType": "uint256",
          "name": "size",
          "type": "uint256"
        }
      ],
      "name": "curr_time",
      "type": "event"
    },
    {
      "anonymous": false,
      "inputs": [
        {
          "indexed": false,
          "internalType": "address",
          "name": "starter",
          "type": "address"
        },
        {
          "indexed": false,
          "internalType": "address",
          "name": "highestbidder",
          "type": "address"
        },
        {
          "indexed": false,
          "internalType": "uint256",
          "name": "bidsize",
          "type": "uint256"
        }
      ],
      "name": "curr_value_",
      "type": "event"
    },
    {
      "inputs": [
        {
          "internalType": "address",
          "name": "to",
          "type": "address"
        },
        {
          "internalType": "uint256",
          "name": "tokenId",
          "type": "uint256"
        }
      ],
      "name": "approve",
      "outputs": [],
      "stateMutability": "nonpayable",
      "type": "function"
    },
    {
      "inputs": [
        {
          "internalType": "uint256",
          "name": "_id",
          "type": "uint256"
        }
      ],
      "name": "auctionEnd",
      "outputs": [],
      "stateMutability": "payable",
      "type": "function",
      "payable": true
    },
    {
      "inputs": [
        {
          "internalType": "address",
          "name": "owner",
          "type": "address"
        }
      ],
      "name": "balanceOf",
      "outputs": [
        {
          "internalType": "uint256",
          "name": "",
          "type": "uint256"
        }
      ],
      "stateMutability": "view",
      "type": "function",
      "constant": true
    },
    {
      "inputs": [
        {
          "internalType": "uint256",
          "name": "_id",
          "type": "uint256"
        }
      ],
      "name": "bid",
      "outputs": [],
      "stateMutability": "payable",
      "type": "function",
      "payable": true
    },
    {
      "inputs": [
        {
          "internalType": "uint256",
          "name": "tokenId",
          "type": "uint256"
        }
      ],
      "name": "getApproved",
      "outputs": [
        {
          "internalType": "address",
          "name": "",
          "type": "address"
        }
      ],
      "stateMutability": "view",
      "type": "function",
      "constant": true
    },
    {
      "inputs": [],
      "name": "get_all_auctions_",
      "outputs": [
        {
          "components": [
            {
              "internalType": "uint256",
              "name": "tokenID",
              "type": "uint256"
            },
            {
              "internalType": "string",
              "name": "image",
              "type": "string"
            },
            {
              "internalType": "uint256",
              "name": "timestamp",
              "type": "uint256"
            },
            {
              "internalType": "uint256",
              "name": "curr_timer",
              "type": "uint256"
            },
            {
              "internalType": "address",
              "name": "Bider",
              "type": "address"
            },
            {
              "internalType": "address payable",
              "name": "benecifiary",
              "type": "address"
            },
            {
              "internalType": "uint256",
              "name": "Bidsize",
              "type": "uint256"
            },
            {
              "internalType": "bool",
              "name": "status",
              "type": "bool"
            },
            {
              "internalType": "string",
              "name": "token_uri",
              "type": "string"
            }
          ],
          "internalType": "struct lol_auction.auction[]",
          "name": "",
          "type": "tuple[]"
        }
      ],
      "stateMutability": "payable",
      "type": "function",
      "payable": true
    },
    {
      "inputs": [
        {
          "internalType": "uint256",
          "name": "_id",
          "type": "uint256"
        }
      ],
      "name": "get_auctionTime",
      "outputs": [
        {
          "internalType": "uint256",
          "name": "",
          "type": "uint256"
        }
      ],
      "stateMutability": "nonpayable",
      "type": "function"
    },
    {
      "inputs": [
        {
          "internalType": "uint256",
          "name": "_id",
          "type": "uint256"
        }
      ],
      "name": "get_bider_",
      "outputs": [
        {
          "internalType": "address",
          "name": "",
          "type": "address"
        }
      ],
      "stateMutability": "nonpayable",
      "type": "function"
    },
    {
      "inputs": [
        {
          "internalType": "uint256",
          "name": "_id",
          "type": "uint256"
        }
      ],
      "name": "get_id_",
      "outputs": [
        {
          "internalType": "address",
          "name": "",
          "type": "address"
        }
      ],
      "stateMutability": "nonpayable",
      "type": "function"
    },
    {
      "inputs": [
        {
          "internalType": "address",
          "name": "_id",
          "type": "address"
        }
      ],
      "name": "get_pengingamount_",
      "outputs": [
        {
          "internalType": "uint256",
          "name": "",
          "type": "uint256"
        }
      ],
      "stateMutability": "nonpayable",
      "type": "function"
    },
    {
      "inputs": [
        {
          "internalType": "uint256",
          "name": "_id",
          "type": "uint256"
        }
      ],
      "name": "get_time_bider",
      "outputs": [
        {
          "internalType": "uint256",
          "name": "",
          "type": "uint256"
        }
      ],
      "stateMutability": "nonpayable",
      "type": "function"
    },
    {
      "inputs": [],
      "name": "get_timer",
      "outputs": [
        {
          "internalType": "uint256",
          "name": "",
          "type": "uint256"
        }
      ],
      "stateMutability": "nonpayable",
      "type": "function"
    },
    {
      "inputs": [],
      "name": "highestBid",
      "outputs": [
        {
          "internalType": "uint256",
          "name": "",
          "type": "uint256"
        }
      ],
      "stateMutability": "view",
      "type": "function",
      "constant": true
    },
    {
      "inputs": [],
      "name": "highestBider",
      "outputs": [
        {
          "internalType": "address",
          "name": "",
          "type": "address"
        }
      ],
      "stateMutability": "view",
      "type": "function",
      "constant": true
    },
    {
      "inputs": [
        {
          "internalType": "address",
          "name": "owner",
          "type": "address"
        },
        {
          "internalType": "address",
          "name": "operator",
          "type": "address"
        }
      ],
      "name": "isApprovedForAll",
      "outputs": [
        {
          "internalType": "bool",
          "name": "",
          "type": "bool"
        }
      ],
      "stateMutability": "view",
      "type": "function",
      "constant": true
    },
    {
      "inputs": [],
      "name": "name",
      "outputs": [
        {
          "internalType": "string",
          "name": "",
          "type": "string"
        }
      ],
      "stateMutability": "view",
      "type": "function",
      "constant": true
    },
    {
      "inputs": [
        {
          "internalType": "uint256",
          "name": "_biddingtime",
          "type": "uint256"
        },
        {
          "internalType": "address payable",
          "name": "_benecifiary",
          "type": "address"
        },
        {
          "internalType": "uint256",
          "name": "_tokenid",
          "type": "uint256"
        },
        {
          "internalType": "string",
          "name": "_image",
          "type": "string"
        },
        {
          "internalType": "string",
          "name": "token_URI",
          "type": "string"
        }
      ],
      "name": "on_auction",
      "outputs": [
        {
          "internalType": "uint256",
          "name": "",
          "type": "uint256"
        },
        {
          "internalType": "address",
          "name": "",
          "type": "address"
        },
        {
          "internalType": "uint256",
          "name": "",
          "type": "uint256"
        },
        {
          "internalType": "uint256",
          "name": "",
          "type": "uint256"
        }
      ],
      "stateMutability": "payable",
      "type": "function",
      "payable": true
    },
    {
      "inputs": [
        {
          "internalType": "uint256",
          "name": "tokenId",
          "type": "uint256"
        }
      ],
      "name": "ownerOf",
      "outputs": [
        {
          "internalType": "address",
          "name": "",
          "type": "address"
        }
      ],
      "stateMutability": "view",
      "type": "function",
      "constant": true
    },
    {
      "inputs": [
        {
          "internalType": "address",
          "name": "from",
          "type": "address"
        },
        {
          "internalType": "address",
          "name": "to",
          "type": "address"
        },
        {
          "internalType": "uint256",
          "name": "tokenId",
          "type": "uint256"
        }
      ],
      "name": "safeTransferFrom",
      "outputs": [],
      "stateMutability": "nonpayable",
      "type": "function"
    },
    {
      "inputs": [
        {
          "internalType": "address",
          "name": "from",
          "type": "address"
        },
        {
          "internalType": "address",
          "name": "to",
          "type": "address"
        },
        {
          "internalType": "uint256",
          "name": "tokenId",
          "type": "uint256"
        },
        {
          "internalType": "bytes",
          "name": "_data",
          "type": "bytes"
        }
      ],
      "name": "safeTransferFrom",
      "outputs": [],
      "stateMutability": "nonpayable",
      "type": "function"
    },
    {
      "inputs": [
        {
          "internalType": "address",
          "name": "operator",
          "type": "address"
        },
        {
          "internalType": "bool",
          "name": "approved",
          "type": "bool"
        }
      ],
      "name": "setApprovalForAll",
      "outputs": [],
      "stateMutability": "nonpayable",
      "type": "function"
    },
    {
      "inputs": [
        {
          "internalType": "bytes4",
          "name": "interfaceId",
          "type": "bytes4"
        }
      ],
      "name": "supportsInterface",
      "outputs": [
        {
          "internalType": "bool",
          "name": "",
          "type": "bool"
        }
      ],
      "stateMutability": "view",
      "type": "function",
      "constant": true
    },
    {
      "inputs": [],
      "name": "symbol",
      "outputs": [
        {
          "internalType": "string",
          "name": "",
          "type": "string"
        }
      ],
      "stateMutability": "view",
      "type": "function",
      "constant": true
    },
    {
      "inputs": [
        {
          "internalType": "uint256",
          "name": "tokenId",
          "type": "uint256"
        }
      ],
      "name": "tokenURI",
      "outputs": [
        {
          "internalType": "string",
          "name": "",
          "type": "string"
        }
      ],
      "stateMutability": "view",
      "type": "function",
      "constant": true
    },
    {
      "inputs": [],
      "name": "tokenid",
      "outputs": [
        {
          "internalType": "uint256",
          "name": "",
          "type": "uint256"
        }
      ],
      "stateMutability": "view",
      "type": "function",
      "constant": true
    },
    {
      "inputs": [
        {
          "internalType": "address",
          "name": "from",
          "type": "address"
        },
        {
          "internalType": "address",
          "name": "to",
          "type": "address"
        },
        {
          "internalType": "uint256",
          "name": "tokenId",
          "type": "uint256"
        }
      ],
      "name": "transferFrom",
      "outputs": [],
      "stateMutability": "nonpayable",
      "type": "function"
    },
    {
      "inputs": [
        {
          "internalType": "uint256",
          "name": "_id",
          "type": "uint256"
        },
        {
          "internalType": "address",
          "name": "_input",
          "type": "address"
        }
      ],
      "name": "withdraw",
      "outputs": [
        {
          "internalType": "bool",
          "name": "",
          "type": "bool"
        }
      ],
      "stateMutability": "nonpayable",
      "type": "function"
    },
    {
      "inputs": [
        {
          "internalType": "address",
          "name": "receiver",
          "type": "address"
        },
        {
          "internalType": "string",
          "name": "tokenURI",
          "type": "string"
        },
        {
          "internalType": "string",
          "name": "_username",
          "type": "string"
        }
      ],
      "name": "mintNft",
      "outputs": [
        {
          "internalType": "uint256",
          "name": "",
          "type": "uint256"
        }
      ],
      "stateMutability": "nonpayable",
      "type": "function"
    },
    {
      "inputs": [],
      "name": "getBid",
      "outputs": [
        {
          "components": [
            {
              "internalType": "uint256",
              "name": "id",
              "type": "uint256"
            },
            {
              "internalType": "address",
              "name": "address_",
              "type": "address"
            },
            {
              "internalType": "string",
              "name": "token_uri",
              "type": "string"
            },
            {
              "internalType": "string",
              "name": "user",
              "type": "string"
            }
          ],
          "internalType": "struct NftExample.Test[]",
          "name": "",
          "type": "tuple[]"
        }
      ],
      "stateMutability": "view",
      "type": "function",
      "constant": true
    },
    {
      "inputs": [
        {
          "internalType": "uint256",
          "name": "_id",
          "type": "uint256"
        }
      ],
      "name": "get_token_uri",
      "outputs": [
        {
          "internalType": "address",
          "name": "",
          "type": "address"
        },
        {
          "internalType": "string",
          "name": "",
          "type": "string"
        },
        {
          "internalType": "string",
          "name": "",
          "type": "string"
        }
      ],
      "stateMutability": "view",
      "type": "function",
      "constant": true
    },
    {
      "inputs": [],
      "name": "get_token_counter",
      "outputs": [
        {
          "internalType": "uint256",
          "name": "",
          "type": "uint256"
        }
      ],
      "stateMutability": "view",
      "type": "function",
      "constant": true
    },
    {
      "inputs": [
        {
          "internalType": "address",
          "name": "input",
          "type": "address"
        }
      ],
      "name": "get_user_tokenURI",
      "outputs": [
        {
          "internalType": "string",
          "name": "",
          "type": "string"
        }
      ],
      "stateMutability": "view",
      "type": "function",
      "constant": true
    },
    {
      "inputs": [
        {
          "internalType": "address",
          "name": "input",
          "type": "address"
        }
      ],
      "name": "get_user_name",
      "outputs": [
        {
          "internalType": "string",
          "name": "",
          "type": "string"
        }
      ],
      "stateMutability": "view",
      "type": "function",
      "constant": true
    },
    {
      "inputs": [
        {
          "internalType": "string",
          "name": "_input",
          "type": "string"
        }
      ],
      "name": "get_user_tokenID",
      "outputs": [
        {
          "internalType": "uint256",
          "name": "",
          "type": "uint256"
        }
      ],
      "stateMutability": "view",
      "type": "function",
      "constant": true
    },
    {
      "inputs": [
        {
          "internalType": "address",
          "name": "_owner",
          "type": "address"
        }
      ],
      "name": "get_owners_tokenURI",
      "outputs": [
        {
          "internalType": "string[]",
          "name": "",
          "type": "string[]"
        }
      ],
      "stateMutability": "nonpayable",
      "type": "function"
    },
    {
      "inputs": [],
      "name": "get_all_nft",
      "outputs": [
        {
          "internalType": "string",
          "name": "",
          "type": "string"
        },
        {
          "internalType": "address",
          "name": "",
          "type": "address"
        }
      ],
      "stateMutability": "view",
      "type": "function",
      "constant": true
    },
    {
      "inputs": [
        {
          "internalType": "address",
          "name": "_from",
          "type": "address"
        },
        {
          "internalType": "uint256",
          "name": "_tokenId",
          "type": "uint256"
        }
      ],
      "name": "transfer_auction_nft",
      "outputs": [],
      "stateMutability": "nonpayable",
      "type": "function"
    },
    {
      "inputs": [
        {
          "internalType": "string",
          "name": "_name",
          "type": "string"
        },
        {
          "internalType": "uint256",
          "name": "bid",
          "type": "uint256"
        }
      ],
      "name": "get_id_uri",
      "outputs": [
        {
          "internalType": "uint256",
          "name": "",
          "type": "uint256"
        }
      ],
      "stateMutability": "view",
      "type": "function",
      "constant": true
    },
    {
      "inputs": [
        {
          "internalType": "address",
          "name": "_from",
          "type": "address"
        }
      ],
      "name": "get_id_uri",
      "outputs": [
        {
          "components": [
            {
              "internalType": "uint256",
              "name": "id",
              "type": "uint256"
            },
            {
              "internalType": "address",
              "name": "address_",
              "type": "address"
            },
            {
              "internalType": "string",
              "name": "token_uri",
              "type": "string"
            },
            {
              "internalType": "string",
              "name": "user",
              "type": "string"
            }
          ],
          "internalType": "struct NftExample.Test[]",
          "name": "",
          "type": "tuple[]"
        }
      ],
      "stateMutability": "view",
      "type": "function",
      "constant": true
    },
    {
      "inputs": [
        {
          "internalType": "address",
          "name": "_from",
          "type": "address"
        },
        {
          "internalType": "address",
          "name": "_to",
          "type": "address"
        },
        {
          "internalType": "uint256",
          "name": "_tokenId",
          "type": "uint256"
        }
      ],
      "name": "transfer_nft",
      "outputs": [],
      "stateMutability": "nonpayable",
      "type": "function"
    }
  ],
  "bytecode": "0x60806040526016805461ffff191690553480156200001c57600080fd5b50604080518082018252600581527f526f62656c00000000000000000000000000000000000000000000000000000060208083019182528351808501909452600384527f52425400000000000000000000000000000000000000000000000000000000009084015281519192916200009791600091620000b6565b508051620000ad906001906020840190620000b6565b505050620001b2565b828054620000c4906200015c565b90600052602060002090601f016020900481019282620000e8576000855562000133565b82601f106200010357805160ff191683800117855562000133565b8280016001018555821562000133579182015b828111156200013357825182559160200191906001019062000116565b506200014192915062000145565b5090565b5b8082111562000141576000815560010162000146565b6002810460018216806200017157607f821691505b60208210811415620001ac577f4e487b7100000000000000000000000000000000000000000000000000000000600052602260045260246000fd5b50919050565b61424a80620001c26000396000f3fe608060405260043610610257576000357c01000000000000000000000000000000000000000000000000000000009004806342842e0e1161014b57806395d89b41116100c8578063c3d0a7561161008c578063c3d0a756146106c3578063c87b56dd146106e3578063cf9bf26714610703578063d57bde7914610718578063e985e9c51461072d57610257565b806395d89b411461062a578063a22cb4651461063f578063aabf80c11461065f578063b88d4fde1461068e578063b94f39b3146106ae57610257565b80636476fe9b1161010f5780636476fe9b1461059d5780636b57707e146105bd57806370a08231146105d25780637d6aab0a146105f25780639054f7e11461060757610257565b806342842e0e146104fd578063454a2ab31461051d57806349467c9c1461053057806353867d691461055d5780636352211e1461057d57610257565b806313e207a6116101d957806328f60cbb1161019d57806328f60cbb1461046a5780632b9575aa1461048a5780633194c629146104aa57806332246e9f146104ca57806341f57c72146104dd57610257565b806313e207a6146103d25780631490b1d3146103e75780631a6d8c8b146104075780631eb23dc81461042a57806323b872dd1461044a57610257565b8063092f3f6711610220578063092f3f6714610321578063095ea7b31461034e578063099a019d146103705780630ed05985146103925780631343262d146103b257610257565b8062f714ce1461025c57806301ffc9a71461029257806305d5b787146102b257806306fdde03146102df578063081812fc146102f4575b600080fd5b34801561026857600080fd5b5061027c610277366004613480565b61074d565b60405161028991906139f1565b60405180910390f35b34801561029e57600080fd5b5061027c6102ad3660046133ba565b6108c1565b3480156102be57600080fd5b506102d26102cd3660046131da565b61093b565b60405161028991906139fc565b3480156102eb57600080fd5b506102d2610b58565b34801561030057600080fd5b5061031461030f366004613468565b610bea565b60405161028991906136a7565b34801561032d57600080fd5b5061034161033c366004613468565b610c39565b604051610289919061403b565b34801561035a57600080fd5b5061036e61036936600461338f565b610cc5565b005b34801561037c57600080fd5b50610385610d63565b6040516102899190613871565b34801561039e57600080fd5b506103416103ad366004613468565b610f83565b3480156103be57600080fd5b5061036e6103cd36600461322e565b61100e565b3480156103de57600080fd5b50610341611180565b3480156103f357600080fd5b50610314610402366004613468565b611184565b61041a6104153660046134a4565b611212565b6040516102899493929190614044565b34801561043657600080fd5b506103416104453660046131da565b6113a0565b34801561045657600080fd5b5061036e61046536600461322e565b6113bb565b34801561047657600080fd5b50610314610485366004613468565b6113f6565b34801561049657600080fd5b506102d26104a53660046131da565b611484565b3480156104b657600080fd5b506103416104c5366004613425565b611562565b61036e6104d8366004613468565b6115cf565b3480156104e957600080fd5b506103856104f83660046131da565b6116da565b34801561050957600080fd5b5061036e61051836600461322e565b611919565b61036e61052b366004613468565b611934565b34801561053c57600080fd5b5061055061054b3660046131da565b611b54565b60405161028991906137bc565b34801561056957600080fd5b5061034161057836600461331c565b611c91565b34801561058957600080fd5b50610314610598366004613468565b611e1c565b3480156105a957600080fd5b506103416105b83660046133f2565b611e54565b3480156105c957600080fd5b50610314611eed565b3480156105de57600080fd5b506103416105ed3660046131da565b611efc565b3480156105fe57600080fd5b50610341611f43565b34801561061357600080fd5b5061061c611f49565b604051610289929190613a0f565b34801561063657600080fd5b506102d26120cf565b34801561064b57600080fd5b5061036e61065a3660046132eb565b6120de565b34801561066b57600080fd5b5061067f61067a366004613468565b6121af565b6040516102899392919061374e565b34801561069a57600080fd5b5061036e6106a936600461326e565b612311565b3480156106ba57600080fd5b50610341612353565b3480156106cf57600080fd5b5061036e6106de36600461338f565b612359565b3480156106ef57600080fd5b506102d26106fe366004613468565b6124d7565b61070b6125fb565b6040516102899190613913565b34801561072457600080fd5b506103416128d6565b34801561073957600080fd5b5061027c6107483660046131f6565b6128dc565b6000805b6017548110156108b5576000818152600c60205260409020548414156108a357600160a060020a0383166000908152600b6020526040908190205490517ff0602ede5c639c75bd6b007dd23a962428939a33221a61cf11c10b7716cabbf6906107bb90839061403b565b60405180910390a180156108a157600160a060020a0384166000908152600b602052604080822091909155517f22d37f0dd321f3d04e6b841c14b9fa58af101a93b87e1cffe05a5394b7a26152906108149086906136a7565b60405180910390a17ff0602ede5c639c75bd6b007dd23a962428939a33221a61cf11c10b7716cabbf68160405161084b919061403b565b60405180910390a1604051600160a060020a0385169082156108fc029083906000818181858888f193505050506108a157600160a060020a0384166000908152600b602052604081209190915591506108bb9050565b505b806108ad8161412c565b915050610751565b50600190505b92915050565b6000600160e060020a031982167f80ac58cd0000000000000000000000000000000000000000000000000000000014806109245750600160e060020a031982167f5b5e139f00000000000000000000000000000000000000000000000000000000145b8061093357506109338261290a565b90505b919050565b60608060005b601a54811015610b5157600081815260256020526040902054600160a060020a0385811691161415610b3f5760008181526026602052604090208054610986906140ee565b80601f01602080910402602001604051908101604052809291908181526020018280546109b2906140ee565b80156109ff5780601f106109d4576101008083540402835291602001916109ff565b820191906000526020600020905b8154815290600101906020018083116109e257829003601f168201915b5050506000848152602660205260409020805493955092610a22925090506140ee565b80601f0160208091040260200160405190810160405280929190818152602001828054610a4e906140ee565b8015610a9b5780601f10610a7057610100808354040283529160200191610a9b565b820191906000526020600020905b815481529060010190602001808311610a7e57829003601f168201915b5050506000848152602660205260409020805493955092610abe925090506140ee565b80601f0160208091040260200160405190810160405280929190818152602001828054610aea906140ee565b8015610b375780601f10610b0c57610100808354040283529160200191610b37565b820191906000526020600020905b815481529060010190602001808311610b1a57829003601f168201915b505050505091505b80610b498161412c565b915050610941565b5092915050565b606060008054610b67906140ee565b80601f0160208091040260200160405190810160405280929190818152602001828054610b93906140ee565b8015610be05780601f10610bb557610100808354040283529160200191610be0565b820191906000526020600020905b815481529060010190602001808311610bc357829003601f168201915b5050505050905090565b6000610bf58261293c565b610c1d5760405160e560020a62461bcd028152600401610c1490613dc5565b60405180910390fd5b50600090815260046020526040902054600160a060020a031690565b60008060005b601754811015610b51576000818152600c6020526040902054841415610cb3576000818152600c6020526040908190206003810154600482015460069092015492519094506000805160206141d583398151915292610caa92600160a060020a03169186919061379b565b60405180910390a15b80610cbd8161412c565b915050610c3f565b6000610cd082611e1c565b905080600160a060020a031683600160a060020a03161415610d075760405160e560020a62461bcd028152600401610c1490613edc565b80600160a060020a0316610d19612959565b600160a060020a03161480610d355750610d3581610748612959565b610d545760405160e560020a62461bcd028152600401610c1490613bbf565b610d5e838361295d565b505050565b60606000601a5467ffffffffffffffff811115610d935760e060020a634e487b7102600052604160045260246000fd5b604051908082528060200260200182016040528015610dcc57816020015b610db9613021565b815260200190600190039081610db15790505b50905060005b601a54811015610f7d576000818152602460209081526040918290208251608081018452815481526001820154600160a060020a031692810192909252600281018054919384929084019190610e27906140ee565b80601f0160208091040260200160405190810160405280929190818152602001828054610e53906140ee565b8015610ea05780601f10610e7557610100808354040283529160200191610ea0565b820191906000526020600020905b815481529060010190602001808311610e8357829003601f168201915b50505050508152602001600382018054610eb9906140ee565b80601f0160208091040260200160405190810160405280929190818152602001828054610ee5906140ee565b8015610f325780601f10610f0757610100808354040283529160200191610f32565b820191906000526020600020905b815481529060010190602001808311610f1557829003601f168201915b505050505081525050838381518110610f5e5760e060020a634e487b7102600052603260045260246000fd5b6020026020010181905250508080610f759061412c565b915050610dd2565b50905090565b60008060005b601754811015610b51576000818152600c6020526040902054841415610ffc576000818152600c6020526040908190206006810154600482015460029092015492519094506000805160206141d583398151915292610ff392600160a060020a031691869061379b565b60405180910390a15b806110068161412c565b915050610f89565b8082600160a060020a031684600160a060020a03166000805160206141f583398151915260405160405180910390a4600061104883611484565b90506000611055836124d7565b60408051608081018252858152600160a060020a0387811660208084019182528385018681526060850189905260008a81526024835295909520845181559151600183018054600160a060020a03191691909416179092559251805194955091936110c69260028501920190613052565b50606082015180516110e2916003840191602090910190613052565b5050506000838152602160209081526040909120835161110492850190613052565b5060008381526025602090815260408083208054600160a060020a031916600160a060020a0389811691909117909155881683526023909152812080549161114b836140d7565b9091555050600160a060020a03841660009081526023602052604081208054916111748361412c565b91905055505050505050565b4290565b60008060005b601754811015610b51576000818152600c6020526040902054841415611200576000818152600c602052604090819020600481015460028201546006909201549251600160a060020a0390911694506000805160206141d5833981519152926111f792869290919061379b565b60405180910390a15b8061120a8161412c565b91505061118a565b60078054600160a060020a031916600160a060020a038616179055600a8390556000808080806112428a42614068565b60408051610120810182528a815260208082018b8152828401859052426060840152336080840152600160a060020a038e1660a0840152600060c08401819052600160e0850181905261010085018d90526017548252600c84529490208351815590518051959650929490936112bd93908501920190613052565b5060408201516002820155606082015160038201556080820151600482018054600160a060020a03928316600160a060020a03199182161790915560a084015160058401805491909316911617905560c0820151600682015560e082015160078201805491151560ff19909216919091179055610100820151805161134c916008840191602090910190613052565b509050506001601760008282546113639190614068565b9250508190555060016018600082825461137d9190614068565b9091555050600754999a600160a060020a03909a16999798509695505050505050565b600160a060020a03166000908152600b602052604090205490565b6113cc6113c6612959565b826129cb565b6113eb5760405160e560020a62461bcd028152600401610c1490613f70565b610d5e838383612a4b565b60008060005b601754811015610b51576000818152600c6020526040902054841415611472576000818152600c602052604090819020600481015460028201546006909201549251600160a060020a0390911694506000805160206141d58339815191529261146992869290919061379b565b60405180910390a15b8061147c8161412c565b9150506113fc565b60608060005b601a54811015610b5157600081815260256020526040902054600160a060020a038581169116141561155057600081815260216020526040902080546114cf906140ee565b80601f01602080910402602001604051908101604052809291908181526020018280546114fb906140ee565b80156115485780601f1061151d57610100808354040283529160200191611548565b820191906000526020600020905b81548152906001019060200180831161152b57829003601f168201915b505050505091505b8061155a8161412c565b91505061148a565b60008060005b601a548110156115c75760008181526021602052604090819020905161158e9190613650565b6040518091039020858051906020012014156115b557600081815260208052604090205491505b806115bf8161412c565b915050611568565b509392505050565b60005b6017548110156116d6576000818152600c60205260409020548214156116c4576000818152600c60205260409020600201544210156116265760405160e560020a62461bcd028152600401610c1490613fcd565b6000818152600c602081815260408084206004810154600160a060020a039081168652600b84528286208690558686529390925260058201546006909201549051919092169282156108fc02929190818181858888f19350505050158015611692573d6000803e3d6000fd5b506000818152600c602052604081206006810191909155600701805460ff199081169091556016805490911660011790555b806116ce8161412c565b9150506115d2565b5050565b60606000601a5467ffffffffffffffff81111561170a5760e060020a634e487b7102600052604160045260246000fd5b60405190808252806020026020018201604052801561174357816020015b611730613021565b8152602001906001900390816117285790505b50905060005b601a54811015610b5157600081815260246020526040902060010154600160a060020a0385811691161415611907576000818152602460209081526040918290208251608081018452815481526001820154600160a060020a0316928101929092526002810180549193849290840191906117c3906140ee565b80601f01602080910402602001604051908101604052809291908181526020018280546117ef906140ee565b801561183c5780601f106118115761010080835404028352916020019161183c565b820191906000526020600020905b81548152906001019060200180831161181f57829003601f168201915b50505050508152602001600382018054611855906140ee565b80601f0160208091040260200160405190810160405280929190818152602001828054611881906140ee565b80156118ce5780601f106118a3576101008083540402835291602001916118ce565b820191906000526020600020905b8154815290600101906020018083116118b157829003601f168201915b5050505050815250508383815181106118fa5760e060020a634e487b7102600052603260045260246000fd5b6020026020010181905250505b806119118161412c565b915050611749565b610d5e83838360405180602001604052806000815250612311565b60005b6017548110156116d6576000818152600c6020526040902054821415611b42576000818152600c602052604090206002015442111561198b5760405160e560020a62461bcd028152600401610c1490613f39565b6000818152600c602052604090206006015434116119be5760405160e560020a62461bcd028152600401610c1490614004565b6000818152600c60205260409020600481018054600160a060020a0319163317905534600690910181905515611ae7576000818152600c6020526040908190206004015490517f22d37f0dd321f3d04e6b841c14b9fa58af101a93b87e1cffe05a5394b7a2615291611a3b91600160a060020a03909116906136a7565b60405180910390a16000818152600c602090815260408083206006810154600490910154600160a060020a03168452600b9092528220805491929091611a82908490614068565b90915550506000818152600c6020908152604080832060040154600160a060020a03168352600b909152908190205490517ff0602ede5c639c75bd6b007dd23a962428939a33221a61cf11c10b7716cabbf691611ade9161403b565b60405180910390a15b6000818152600c602052604090819020600481015460069091015491517fdfea07ab8527bd08519bfa633240757a7bb0a7f3c7adc98e30604ba73c70f42992611b3992600160a060020a031691613782565b60405180910390a15b80611b4c8161412c565b915050611937565b600160a060020a0381166000908152602260205260409081902090516060917fda565ef21d8851fa7c44e63e12084351c35048e4e5bba83ab005363d04c685c191611b9f919061381c565b60405180910390a1600160a060020a038216600090815260226020908152604080832080548251818502810185019093528083529193909284015b82821015611c86578382906000526020600020018054611bf9906140ee565b80601f0160208091040260200160405190810160405280929190818152602001828054611c25906140ee565b8015611c725780601f10611c4757610100808354040283529160200191611c72565b820191906000526020600020905b815481529060010190602001808311611c5557829003601f168201915b505050505081526020019060010190611bda565b505050509050919050565b6000611c9f84601a54612b6c565b611cab601a5484612c3f565b611cb484611efc565b600160a060020a038516600090815260236020908152604080832093909355602281529181208054600181018255908252908290208551611cfd93919092019190860190613052565b5060408051608081018252601a54808252600160a060020a0387811660208085019182528486018981526060860189905260009485526024825295909320845181559051600182018054600160a060020a031916919093161790915592518051929392611d709260028501920190613052565b5060608201518051611d8c916003840191602090910190613052565b5050601a54601f81905560009081526021602090815260409091208451611db893509091850190613052565b50601a805460009081526025602090815260408083208054600160a060020a031916600160a060020a038a1617905592548252602681529190208451611e0092860190613052565b50601a54611e0f906001614068565b601a819055949350505050565b600081815260026020526040812054600160a060020a0316806109335760405160e560020a62461bcd028152600401610c1490613c79565b60008060005b601a54811015610b51576000818152602460209081526040918290209151611e86926002019101613650565b6040516020818303038152906040528051906020012084604051602001611ead919061365c565b604051602081830303815290604052805190602001201415611edb5760008181526024602052604090205491505b80611ee58161412c565b915050611e5a565b600854600160a060020a031681565b6000600160a060020a038216611f275760405160e560020a62461bcd028152600401610c1490613c1c565b50600160a060020a031660009081526003602052604090205490565b600a5481565b606060006060806000805b601a548110156120c35760008181526021602052604090208054611f77906140ee565b80601f0160208091040260200160405190810160405280929190818152602001828054611fa3906140ee565b8015611ff05780601f10611fc557610100808354040283529160200191611ff0565b820191906000526020600020905b815481529060010190602001808311611fd357829003601f168201915b5050506000848152602660205260409020805493965092612013925090506140ee565b80601f016020809104026020016040519081016040528092919081815260200182805461203f906140ee565b801561208c5780601f106120615761010080835404028352916020019161208c565b820191906000526020600020905b81548152906001019060200180831161206f57829003601f168201915b50505060008481526025602052604090205492965050600160a060020a0390911692508190506120bb8161412c565b915050611f54565b50919350909150509091565b606060018054610b67906140ee565b6120e6612959565b600160a060020a031682600160a060020a0316141561211a5760405160e560020a62461bcd028152600401610c1490613b2b565b8060056000612127612959565b600160a060020a03908116825260208083019390935260409182016000908120918716808252919093529120805460ff19169215159290921790915561216b612959565b600160a060020a03167f17307eab39ab6107e8899845ad3d59bd9653f200f220920489ca2b5937696c31836040516121a391906139f1565b60405180910390a35050565b6000818152602160205260408120805460609182918491906121d0906140ee565b80601f01602080910402602001604051908101604052809291908181526020018280546121fc906140ee565b80156122495780601f1061221e57610100808354040283529160200191612249565b820191906000526020600020905b81548152906001019060200180831161222c57829003601f168201915b505050600088815260256020908152604080832054602690925282208054959650600160a060020a03909116949193509150612284906140ee565b80601f01602080910402602001604051908101604052809291908181526020018280546122b0906140ee565b80156122fd5780601f106122d2576101008083540402835291602001916122fd565b820191906000526020600020905b8154815290600101906020018083116122e057829003601f168201915b50959b939a50959850919650505050505050565b61232261231c612959565b836129cb565b6123415760405160e560020a62461bcd028152600401610c1490613f70565b61234d84848484612c86565b50505050565b601a5490565b6000612364826113f6565b90508181600160a060020a031684600160a060020a03166000805160206141f583398151915260405160405180910390a460006123a082611484565b905060006123ad846124d7565b90506123b8846113f6565b60408051608081018252868152600160a060020a0383811660208084019182528385018881526060850188905260008b81526024835295909520845181559151600183018054600160a060020a03191691909416179092559251805194975091936124299260028501920190613052565b5060608201518051612445916003840191602090910190613052565b5050506000848152602160209081526040909120835161246792850190613052565b5060008481526025602090815260408083208054600160a060020a031916600160a060020a038881169190911790915588168352602390915281208054916124ae836140d7565b9091555050600160a060020a03831660009081526023602052604081208054916111748361412c565b60606124e28261293c565b6125015760405160e560020a62461bcd028152600401610c1490613d68565b6000828152600660205260408120805461251a906140ee565b80601f0160208091040260200160405190810160405280929190818152602001828054612546906140ee565b80156125935780601f1061256857610100808354040283529160200191612593565b820191906000526020600020905b81548152906001019060200180831161257657829003601f168201915b5050505050905060006125a4612cbc565b90508051600014156125b857509050610936565b8151156125ea5780826040516020016125d2929190613678565b60405160208183030381529060405292505050610936565b6125f384612cce565b949350505050565b6060600060185467ffffffffffffffff81111561262b5760e060020a634e487b7102600052604160045260246000fd5b60405190808252806020026020018201604052801561266457816020015b6126516130d6565b8152602001906001900390816126495790505b50905060005b601854811015610f7d576000818152600c6020526040908190206004810154600582015460068301546002840154945193947f8b3fcce7fe829a267bc377da2d690cafe4af1232e15c0dffd64d9955e4283049946126e194600160a060020a039081169416929190600188019060088901906136bb565b60405180910390a16000828152600c602052604090206007015460ff161515600114156128c35780604051806101200160405290816000820154815260200160018201805461272f906140ee565b80601f016020809104026020016040519081016040528092919081815260200182805461275b906140ee565b80156127a85780601f1061277d576101008083540402835291602001916127a8565b820191906000526020600020905b81548152906001019060200180831161278b57829003601f168201915b505050918352505060028201546020820152600382015460408201526004820154600160a060020a0390811660608301526005830154166080820152600682015460a0820152600782015460ff16151560c082015260088201805460e090920191612812906140ee565b80601f016020809104026020016040519081016040528092919081815260200182805461283e906140ee565b801561288b5780601f106128605761010080835404028352916020019161288b565b820191906000526020600020905b81548152906001019060200180831161286e57829003601f168201915b5050505050815250508383815181106128b75760e060020a634e487b7102600052603260045260246000fd5b60200260200101819052505b50806128ce8161412c565b91505061266a565b60095481565b600160a060020a03918216600090815260056020908152604080832093909416825291909152205460ff1690565b600160e060020a031981167f01ffc9a70000000000000000000000000000000000000000000000000000000014919050565b600090815260026020526040902054600160a060020a0316151590565b3390565b60008181526004602052604090208054600160a060020a031916600160a060020a038416908117909155819061299282611e1c565b600160a060020a03167f8c5be1e5ebec7d5bd14f71427d1e84f3dd0314c0f7b2291e5b200ac8c7c3b92560405160405180910390a45050565b60006129d68261293c565b6129f55760405160e560020a62461bcd028152600401610c1490613b62565b6000612a0083611e1c565b905080600160a060020a031684600160a060020a03161480612a3b575083600160a060020a0316612a3084610bea565b600160a060020a0316145b806125f357506125f381856128dc565b82600160a060020a0316612a5e82611e1c565b600160a060020a031614612a875760405160e560020a62461bcd028152600401610c1490613e22565b600160a060020a038216612ab05760405160e560020a62461bcd028152600401610c1490613ace565b612abb838383610d5e565b612ac660008261295d565b600160a060020a0383166000908152600360205260408120805460019290612aef908490614094565b9091555050600160a060020a0382166000908152600360205260408120805460019290612b1d908490614068565b90915550506000818152600260205260408082208054600160a060020a031916600160a060020a0386811691821790925591518493918716916000805160206141f583398151915291a4505050565b600160a060020a038216612b955760405160e560020a62461bcd028152600401610c1490613d33565b612b9e8161293c565b15612bbe5760405160e560020a62461bcd028152600401610c1490613a97565b612bca60008383610d5e565b600160a060020a0382166000908152600360205260408120805460019290612bf3908490614068565b90915550506000818152600260205260408082208054600160a060020a031916600160a060020a03861690811790915590518392906000805160206141f5833981519152908290a45050565b612c488261293c565b612c675760405160e560020a62461bcd028152600401610c1490613cd6565b60008281526006602090815260409091208251610d5e92840190613052565b612c91848484612a4b565b612c9d84848484612d54565b61234d5760405160e560020a62461bcd028152600401610c1490613a3a565b60408051602081019091526000815290565b6060612cd98261293c565b612cf85760405160e560020a62461bcd028152600401610c1490613e7f565b6000612d02612cbc565b90506000815111612d225760405180602001604052806000815250612d4d565b80612d2c84612ea7565b604051602001612d3d929190613678565b6040516020818303038152906040525b9392505050565b6000612d6884600160a060020a031661301b565b15612e9c5783600160a060020a031663150b7a02612d84612959565b8786866040518563ffffffff167c0100000000000000000000000000000000000000000000000000000000028152600401612dc29493929190613712565b602060405180830381600087803b158015612ddc57600080fd5b505af1925050508015612e0c575060408051601f3d908101601f19168201909252612e09918101906133d6565b60015b612e69573d808015612e3a576040519150601f19603f3d011682016040523d82523d6000602084013e612e3f565b606091505b508051612e615760405160e560020a62461bcd028152600401610c1490613a3a565b805181602001fd5b600160e060020a0319167f150b7a02000000000000000000000000000000000000000000000000000000001490506125f3565b506001949350505050565b606081612ee8575060408051808201909152600181527f30000000000000000000000000000000000000000000000000000000000000006020820152610936565b8160005b8115612f125780612efc8161412c565b9150612f0b9050600a83614080565b9150612eec565b60008167ffffffffffffffff811115612f3e5760e060020a634e487b7102600052604160045260246000fd5b6040519080825280601f01601f191660200182016040528015612f68576020820181803683370190505b5090505b84156125f357612f7d600183614094565b9150612f8a600a86614147565b612f95906030614068565b7f010000000000000000000000000000000000000000000000000000000000000002818381518110612fda5760e060020a634e487b7102600052603260045260246000fd5b60200101907effffffffffffffffffffffffffffffffffffffffffffffffffffffffffffff1916908160001a905350613014600a86614080565b9450612f6c565b3b151590565b6040518060800160405280600081526020016000600160a060020a0316815260200160608152602001606081525090565b82805461305e906140ee565b90600052602060002090601f01602090048101928261308057600085556130c6565b82601f1061309957805160ff19168380011785556130c6565b828001600101855582156130c6579182015b828111156130c65782518255916020019190600101906130ab565b506130d2929150613136565b5090565b604051806101200160405280600081526020016060815260200160008152602001600081526020016000600160a060020a031681526020016000600160a060020a0316815260200160008152602001600015158152602001606081525090565b5b808211156130d25760008155600101613137565b600067ffffffffffffffff808411156131665761316661418d565b604051601f8501601f19168101602001828111828210171561318a5761318a61418d565b6040528481529150818385018610156131a257600080fd5b8484602083013760006020868301015250509392505050565b600082601f8301126131cb578081fd5b612d4d8383356020850161314b565b6000602082840312156131eb578081fd5b8135612d4d816141a6565b60008060408385031215613208578081fd5b8235613213816141a6565b91506020830135613223816141a6565b809150509250929050565b600080600060608486031215613242578081fd5b833561324d816141a6565b9250602084013561325d816141a6565b929592945050506040919091013590565b60008060008060808587031215613283578081fd5b843561328e816141a6565b9350602085013561329e816141a6565b925060408501359150606085013567ffffffffffffffff8111156132c0578182fd5b8501601f810187136132d0578182fd5b6132df8782356020840161314b565b91505092959194509250565b600080604083850312156132fd578182fd5b8235613308816141a6565b915060208301358015158114613223578182fd5b600080600060608486031215613330578283fd5b833561333b816141a6565b9250602084013567ffffffffffffffff80821115613357578384fd5b613363878388016131bb565b93506040860135915080821115613378578283fd5b50613385868287016131bb565b9150509250925092565b600080604083850312156133a1578182fd5b82356133ac816141a6565b946020939093013593505050565b6000602082840312156133cb578081fd5b8135612d4d816141be565b6000602082840312156133e7578081fd5b8151612d4d816141be565b600060208284031215613403578081fd5b813567ffffffffffffffff811115613419578182fd5b6125f3848285016131bb565b60008060408385031215613437578182fd5b823567ffffffffffffffff81111561344d578283fd5b613459858286016131bb565b95602094909401359450505050565b600060208284031215613479578081fd5b5035919050565b60008060408385031215613492578182fd5b823591506020830135613223816141a6565b600080600080600060a086880312156134bb578283fd5b8535945060208601356134cd816141a6565b935060408601359250606086013567ffffffffffffffff808211156134f0578283fd5b6134fc89838a016131bb565b93506080880135915080821115613511578283fd5b5061351e888289016131bb565b9150509295509295909350565b600160a060020a03169052565b15159052565b600081518084526135568160208601602086016140ab565b601f01601f19169290920160200192915050565b60008154613577816140ee565b6001828116801561358f57600181146135a0576135cf565b60ff198416875282870194506135cf565b8560005260208060002060005b858110156135c65781548a8201529084019082016135ad565b50505082870194505b5050505092915050565b600081546135e6816140ee565b808552602060018381168015613603576001811461361757613645565b60ff19851688840152604088019550613645565b866000528260002060005b8581101561363d5781548a8201860152908301908401613622565b890184019650505b505050505092915050565b6000612d4d828461356a565b6000825161366e8184602087016140ab565b9190910192915050565b6000835161368a8184602088016140ab565b83519083019061369e8183602088016140ab565b01949350505050565b600160a060020a0391909116815260200190565b6000600160a060020a03808916835280881660208401525085604083015284606083015260c060808301526136f360c08301856135d9565b82810360a084015261370581856135d9565b9998505050505050505050565b6000600160a060020a03808716835280861660208401525083604083015260806060830152613744608083018461353e565b9695505050505050565b6000600160a060020a038516825260606020830152613770606083018561353e565b8281036040840152613744818561353e565b600160a060020a03929092168252602082015260400190565b600160a060020a039390931683526020830191909152604082015260600190565b6000602080830181845280855180835260408601915060408482028701019250838701855b8281101561380f57603f198886030184526137fd85835161353e565b945092850192908501906001016137e1565b5092979650505050505050565b6000602080830181845280855480835260408601915060408482028701019250868552838520855b8281101561380f57878503603f1901845261385f85836135d9565b94509285019260019182019101613844565b60208082528251828201819052600091906040908185019080840286018301878501865b8381101561390557603f198984030185528151608081518552600160a060020a038983015116898601528782015181898701526138d48287018261353e565b915050606080830151925085820381870152506138f1818361353e565b968901969450505090860190600101613895565b509098975050505050505050565b60208082528251828201819052600091906040908185019080840286018301878501865b8381101561390557603f1989840301855281516101208151855288820151818a8701526139668287018261353e565b9150508782015188860152606080830151818701525060808083015161398e8288018261352b565b505060a0808301516139a28288018261352b565b505060c0828101519086015260e0808301516139c082880182613538565b505061010080830151925085820381870152506139dd818361353e565b968901969450505090860190600101613937565b901515815260200190565b600060208252612d4d602083018461353e565b600060408252613a22604083018561353e565b9050600160a060020a03831660208301529392505050565b60208082526032908201527f4552433732313a207472616e7366657220746f206e6f6e20455243373231526560408201527f63656976657220696d706c656d656e7465720000000000000000000000000000606082015260800190565b6020808252601c908201527f4552433732313a20746f6b656e20616c7265616479206d696e74656400000000604082015260600190565b60208082526024908201527f4552433732313a207472616e7366657220746f20746865207a65726f2061646460408201527f7265737300000000000000000000000000000000000000000000000000000000606082015260800190565b60208082526019908201527f4552433732313a20617070726f766520746f2063616c6c657200000000000000604082015260600190565b6020808252602c908201527f4552433732313a206f70657261746f7220717565727920666f72206e6f6e657860408201527f697374656e7420746f6b656e0000000000000000000000000000000000000000606082015260800190565b60208082526038908201527f4552433732313a20617070726f76652063616c6c6572206973206e6f74206f7760408201527f6e6572206e6f7220617070726f76656420666f7220616c6c0000000000000000606082015260800190565b6020808252602a908201527f4552433732313a2062616c616e636520717565727920666f7220746865207a6560408201527f726f206164647265737300000000000000000000000000000000000000000000606082015260800190565b60208082526029908201527f4552433732313a206f776e657220717565727920666f72206e6f6e657869737460408201527f656e7420746f6b656e0000000000000000000000000000000000000000000000606082015260800190565b6020808252602e908201527f45524337323155524953746f726167653a2055524920736574206f66206e6f6e60408201527f6578697374656e7420746f6b656e000000000000000000000000000000000000606082015260800190565b6020808252818101527f4552433732313a206d696e7420746f20746865207a65726f2061646472657373604082015260600190565b60208082526031908201527f45524337323155524953746f726167653a2055524920717565727920666f722060408201527f6e6f6e6578697374656e7420746f6b656e000000000000000000000000000000606082015260800190565b6020808252602c908201527f4552433732313a20617070726f76656420717565727920666f72206e6f6e657860408201527f697374656e7420746f6b656e0000000000000000000000000000000000000000606082015260800190565b60208082526029908201527f4552433732313a207472616e73666572206f6620746f6b656e2074686174206960408201527f73206e6f74206f776e0000000000000000000000000000000000000000000000606082015260800190565b6020808252602f908201527f4552433732314d657461646174613a2055524920717565727920666f72206e6f60408201527f6e6578697374656e7420746f6b656e0000000000000000000000000000000000606082015260800190565b60208082526021908201527f4552433732313a20617070726f76616c20746f2063757272656e74206f776e6560408201527f7200000000000000000000000000000000000000000000000000000000000000606082015260800190565b6020808252601d908201527f5468652061756374696f6e2068617320616c726561647920656e646564000000604082015260600190565b60208082526031908201527f4552433732313a207472616e736665722063616c6c6572206973206e6f74206f60408201527f776e6572206e6f7220617070726f766564000000000000000000000000000000606082015260800190565b6020808252601d908201527f5468652061756374696f6e20686173206e6f7420656e64656420796574000000604082015260600190565b6020808252601e908201527f546865726520697320616c726561647920612068696768657220426964210000604082015260600190565b90815260200190565b938452600160a060020a039290921660208401526040830152606082015260800190565b6000821982111561407b5761407b61415b565b500190565b60008261408f5761408f614174565b500490565b6000828210156140a6576140a661415b565b500390565b60005b838110156140c65781810151838201526020016140ae565b8381111561234d5750506000910152565b6000816140e6576140e661415b565b506000190190565b60028104600182168061410257607f821691505b602082108114156141265760e060020a634e487b7102600052602260045260246000fd5b50919050565b60006000198214156141405761414061415b565b5060010190565b60008261415657614156614174565b500690565b60e060020a634e487b7102600052601160045260246000fd5b60e060020a634e487b7102600052601260045260246000fd5b60e060020a634e487b7102600052604160045260246000fd5b600160a060020a03811681146141bb57600080fd5b50565b600160e060020a0319811681146141bb57600080fdfe7f6b6ce17663b84b98563fbe52d9b0443c64eed9bd846eb822fc919ac65e0eb8ddf252ad1be2c89b69c2b068fc378daa952ba7f163c4a11628f55a4df523b3efa2646970667358221220879b1f5b4ae62036a5eafdeb79bd2bc37f156c6eb351a0d40554aa985e828e3c64736f6c63430008000033",
  "immutableReferences": {},
  "source": "pragma solidity ^0.8.0;\r\n\r\nimport \"@openzeppelin/contracts/token/ERC721/ERC721.sol\";\r\nimport \"@openzeppelin/contracts/token/ERC721/extensions/ERC721URIStorage.sol\";\r\nimport \"@openzeppelin/contracts/utils/Counters.sol\";\r\nimport \"./Auction.sol\";\r\n\r\ncontract NftExample is ERC721URIStorage, lol_auction{\r\n    using Counters for Counters.Counter;\r\n    Counters.Counter private _tokenIds;\r\n    uint256 _tokenCounter;\r\n\r\n    address payable putbid;\r\n    address payable Auction_creator;\r\n\r\n    mapping(uint256 => User_Nft) map_Usern_Nft;\r\n    \r\n    mapping(uint => uint) internal tokenTokenIndexes;\r\n    \r\n     event all_nfts(string []); \r\n    \r\n    \r\n     struct User_Nft{\r\n        uint _id;\r\n        mapping(uint256 => uint256) map_bid;\r\n        mapping(uint256 => string) map_username;\r\n        mapping(address => string[]) ownerTokenURI;\r\n        \r\n\r\n        mapping(address => uint256) balances;\r\n        \r\n        mapping(uint256 => Test) map_token_list;\r\n        \r\n        mapping(uint256 => address) map_token_owner;\r\n        mapping(uint256 => string) map_token_URI;\r\n     }\r\n\r\n     struct Test{\r\n         uint id;\r\n         address address_;\r\n         string token_uri;\r\n         string user;\r\n     }\r\n\r\n    User_Nft new_nft;\r\n\r\n\r\n    constructor() ERC721(\"Robel\", \"RBT\") {}\r\n\r\n    function mintNft(address receiver, string memory tokenURI, string memory _username) public returns (uint256) {\r\n        \r\n        _mint(receiver, _tokenCounter);\r\n        _setTokenURI(_tokenCounter, tokenURI);\r\n        \r\n        new_nft.balances[receiver] = balanceOf(receiver);\r\n        new_nft.ownerTokenURI[receiver].push(tokenURI);\r\n\r\n        new_nft.map_token_list[_tokenCounter] = Test(_tokenCounter, receiver, tokenURI, _username);\r\n        \r\n        new_nft._id = _tokenCounter;\r\n        new_nft.map_username[_tokenCounter] = _username;\r\n        new_nft.map_token_owner[_tokenCounter] = receiver;\r\n        new_nft.map_token_URI[_tokenCounter] = tokenURI;\r\n        _tokenCounter = _tokenCounter + 1;\r\n        return _tokenCounter;\r\n    }\r\n    \r\n     function getBid() public view returns (Test[] memory){\r\n      Test[] memory allTest = new Test[](_tokenCounter);\r\n      for (uint i = 0; i < _tokenCounter; i++) {\r\n          Test storage allTests = new_nft.map_token_list[i];\r\n          allTest[i] = allTests; \r\n      }\r\n      return allTest;\r\n  }\r\n  \r\n\r\n    \r\n     function get_token_uri(uint _id) public view returns(address, string memory, string memory){\r\n         string memory curr_name = new_nft.map_username[_id];\r\n         address curr_address = new_nft.map_token_owner[_id];\r\n         string memory curr_TokenURI = new_nft.map_token_URI[_id];\r\n         return (curr_address, curr_TokenURI, curr_name);\r\n    }\r\n    \r\n    function get_token_counter() public view returns(uint){\r\n        return _tokenCounter;\r\n    }\r\n\r\n     function get_user_tokenURI(address input) public view returns(string memory){\r\n            string memory get_tokenURI;\r\n            for(uint i; i < _tokenCounter; i++){\r\n                \r\n                if(input == new_nft.map_token_owner[i]){\r\n                    get_tokenURI = new_nft.map_token_URI[i];\r\n                    get_tokenURI = new_nft.map_token_URI[i];\r\n                    get_tokenURI = new_nft.map_token_URI[i];\r\n                }\r\n            }\r\n            return (get_tokenURI);\r\n        }\r\n    \r\n\r\n        function get_user_name(address input) public view returns(string memory){\r\n            string memory get_user;\r\n            for(uint i; i < _tokenCounter; i++){\r\n                \r\n                if(input == new_nft.map_token_owner[i]){\r\n                    get_user = new_nft.map_username[i];\r\n                }\r\n            }\r\n            return (get_user);\r\n        }\r\n\r\n        function get_user_tokenID(string memory _input) public view returns(uint){\r\n            uint get_ID;\r\n            for(uint i; i < _tokenCounter; i++){\r\n                \r\n                if(keccak256(abi.encodePacked((_input))) == keccak256(abi.encodePacked((new_nft.map_token_list[i].token_uri)))){\r\n                    get_ID = new_nft.map_token_list[i].id;\r\n                }\r\n            }\r\n            return (get_ID);\r\n        }\r\n\r\n    \r\n        \r\n        function get_owners_tokenURI(address _owner) external returns (string  [] memory){\r\n                    emit all_nfts(new_nft.ownerTokenURI[_owner]);\r\n                    return (new_nft.ownerTokenURI[_owner]);\r\n                } \r\n        \r\n        \r\n\r\n        function get_id_uri(string memory _name, uint bid) public view returns (uint){\r\n              uint _id;\r\n              for(uint i; i < _tokenCounter; i++){\r\n                if(keccak256(bytes(_name))  == keccak256(bytes(new_nft.map_username[i])) ){\r\n                    _id = new_nft.map_bid[i];\r\n                    \r\n                }\r\n            }\r\n\r\n            return _id;\r\n        }\r\n\r\n    function get_all_nft() public view returns(string memory, address){\r\n        string memory get_token;\r\n        string memory get_username;\r\n        address get_owner;\r\n\r\n        for(uint i; i < _tokenCounter; i++){  \r\n                get_username = new_nft.map_username[i];   \r\n                get_token = new_nft.map_token_URI[i];\r\n                get_owner = new_nft.map_token_owner[i];\r\n        }   \r\n        return (get_token, get_owner);\r\n    }\r\n \r\n        function transfer_auction_nft(address _from, uint256 _tokenId) public {\r\n                address _to = super.get_bider_(_tokenId);\r\n                emit Transfer(_from, _to, _tokenId);\r\n               \r\n                \r\n                string memory curr_user = get_user_name(_to);\r\n                \r\n                string memory curr_token_URI = tokenURI(_tokenId);\r\n                _to = super.get_bider_(_tokenId);\r\n                \r\n                new_nft.map_token_list[_tokenId] = Test(_tokenId, _to, curr_user, curr_token_URI);\r\n                \r\n                new_nft.map_username[_tokenId] = curr_user;\r\n                new_nft.map_token_owner[_tokenId] = _to;\r\n                new_nft.balances[_from]--;\r\n                new_nft.balances[_to]++;\r\n        }\r\n\r\n        function get_id_uri(address _from) public view returns (Test [] memory){\r\n              \r\n              Test[] memory allTest = new Test[](_tokenCounter);\r\n              for(uint i; i < _tokenCounter; i++){\r\n                if(_from == new_nft.map_token_list[i].address_){\r\n                    Test storage allTests = new_nft.map_token_list[i];\r\n                    allTest[i] = allTests; \r\n                }\r\n            }\r\n            return allTest;\r\n        }\r\n \r\n        function transfer_nft(address _from, address _to, uint256 _tokenId) public {\r\n    \r\n                emit Transfer(_from, _to, _tokenId);\r\n                \r\n                string memory curr_user = get_user_name(_to);\r\n                \r\n                string memory curr_token_URI = tokenURI(_tokenId);\r\n                \r\n\r\n                new_nft.map_token_list[_tokenId] = Test(_tokenId, _to, curr_token_URI, curr_user);\r\n                new_nft.map_username[_tokenId] = curr_user;\r\n                new_nft.map_token_owner[_tokenId] = _to;\r\n\r\n                new_nft.balances[_from]--;\r\n                new_nft.balances[_to]++;\r\n        }\r\n        \r\n}\r\n\r\n\r\n\r\n",
  "sourcePath": "C:/Users/robel/react-apps/nft-platform/contracts/Nft.sol",
  "compiler": {
    "name": "solc",
    "version": "0.8.0+commit.c7dfd78e.Emscripten.clang"
  },
  "schemaVersion": "3.4.0",
  "updatedAt": "2021-08-26T22:24:16.441Z",
  "networkType": "ethereum",
  "devdoc": {
    "kind": "dev",
    "methods": {
      "approve(address,uint256)": {
        "details": "See {IERC721-approve}."
      },
      "balanceOf(address)": {
        "details": "See {IERC721-balanceOf}."
      },
      "getApproved(uint256)": {
        "details": "See {IERC721-getApproved}."
      },
      "isApprovedForAll(address,address)": {
        "details": "See {IERC721-isApprovedForAll}."
      },
      "name()": {
        "details": "See {IERC721Metadata-name}."
      },
      "ownerOf(uint256)": {
        "details": "See {IERC721-ownerOf}."
      },
      "safeTransferFrom(address,address,uint256)": {
        "details": "See {IERC721-safeTransferFrom}."
      },
      "safeTransferFrom(address,address,uint256,bytes)": {
        "details": "See {IERC721-safeTransferFrom}."
      },
      "setApprovalForAll(address,bool)": {
        "details": "See {IERC721-setApprovalForAll}."
      },
      "supportsInterface(bytes4)": {
        "details": "See {IERC165-supportsInterface}."
      },
      "symbol()": {
        "details": "See {IERC721Metadata-symbol}."
      },
      "tokenURI(uint256)": {
        "details": "See {IERC721Metadata-tokenURI}."
      },
      "transferFrom(address,address,uint256)": {
        "details": "See {IERC721-transferFrom}."
      }
    },
    "version": 1
  },
  "userdoc": {
    "kind": "user",
    "methods": {},
    "version": 1
  }
}